{
	"data": {
		"bytecode": {
			"linkReferences": {},
			"object": "60a080604052346100c257306080525f5160206128ca5f395f51905f525460ff8160401c166100b3576002600160401b03196001600160401b03821601610060575b60405161280390816100c782396080518181816118dd015261197f0152f35b6001600160401b0319166001600160401b039081175f5160206128ca5f395f51905f525581527fc7f505b2f371ae2175ee4913f4499e1f2633a7b5936321eed1cdaeb6115181d290602090a15f80610041565b63f92ee8a960e01b5f5260045ffd5b5f80fdfe60806040526004361015610011575f80fd5b5f3560e01c806301060a4f14611d6d57806301ffc9a714611d175780631cf2bbc914611cce578063248a9ca314611c8f5780632f2ff15d14611c4557806336568abe14611c015780633f4ba83a14611b705780634498b86814611b365780634f1ef2861461193157806352d1902d146118cb5780635c975abb146118aa5780635cb009aa146118385780636fb2d341146110e857806375b238fc146110c15780638456cb591461106a5780638f91b49a14610f7857806391d1485414610f23578063926d7d7f14610ee9578063940992a314610db25780639658e1ef14610d34578063a217fddf14610d1a578063a3112a6414610ccc578063ad3cb1cc14610c85578063afc5794c14610970578063c4d66de8146106c6578063c65b334414610537578063d547741f146104e6578063ddb040e91461048e5763ebfde32b14610158575f80fd5b3461048a5761016636612117565b335f9081527f97475e83412a1cd63371056cbdac3dc957c5781775cfda51d836c1614de09637602052604090205490919060ff1615610453576101a7612661565b825f52606460205260405f20926101c3600885015415156121a3565b6002840154336001600160a01b03909116036103f957600784019360ff85541660048110156103e5576103915760068101946001600160401b03851161037d5761020d8654611f1c565b601f8111610338575b505f95601f86116001146102aa57916102839161029a93877fab27cc063c9f317505b2d01d797112964a506a9f4f4e67c34596391a83f259c8969798995f9161029f575b508960011b905f198b60031b1c19161790555b805460ff19166001179055426009820155612202565b936040519182916020835233976020840191612183565b0390a4005b90508801355f61025a565b601f198616815f5260205f20905f5b818110610320575091610283939188997fab27cc063c9f317505b2d01d797112964a506a9f4f4e67c34596391a83f259c897989961029a979510610307575b5050600189811b01905561026d565b8901355f1960038c901b60f8161c191690555f806102f8565b878a013583556020998a0199600190930192016102b9565b865f5260205f20601f870160051c81019160208810610373575b601f0160051c01905b8181106103685750610216565b5f815560010161035b565b9091508190610352565b634e487b7160e01b5f52604160045260245ffd5b60405162461bcd60e51b815260206004820152602660248201527f4174746573746174696f6e52656769737472793a20616c72656164792070726f60448201526518d95cdcd95960d21b6064820152608490fd5b634e487b7160e01b5f52602160045260245ffd5b60405162461bcd60e51b815260206004820152602c60248201527f4174746573746174696f6e52656769737472793a206e6f7420617574686f726960448201526b7a656420666163696c69747960a01b6064820152608490fd5b63e2517d3f60e01b5f52336004527f13afe234b87b250e27c8e9cd269d4ebfc7af20d3fd4a3d9ade8196eb1de7d00360245260445ffd5b5f80fd5b3461048a57604036600319011261048a576104a7611e61565b6001600160a01b03165f9081526067602052604090208054602435919082101561048a576020916104d791611e8d565b90549060031b1c604051908152f35b3461048a57604036600319011261048a57610535600435610505611e77565b9061053061052b825f525f51602061276e5f395f51905f52602052600160405f20015490565b612399565b6125c5565b005b3461048a57602036600319011261048a576004356001600160401b03811161048a576105696020913690600401611eef565b919061057361227e565b5082604051938492833781016065815203019020548015610675575f52606460205260405f206040516105a581611dd3565b6105ae82611f54565b815260018201546001600160a01b03908116602083015260028301541660408201526105dc60038301611f54565b6060820152600482015460808201526105f760058301611f54565b60a082015261060860068301611f54565b60c082015260ff60078301541660048110156103e55761067192600c9160e084015260088101546101008401526009810154610120840152600a810154610140840152610657600b8201611f54565b610160840152015461018082015260405191829182612025565b0390f35b60405162461bcd60e51b8152602060048201526024808201527f4174746573746174696f6e52656769737472793a206f72646572206e6f7420666044820152631bdd5b9960e21b6064820152608490fd5b3461048a57602036600319011261048a576106df611e61565b5f5160206127ae5f395f51905f525460ff8160401c1615916001600160401b03821680159081610968575b600114908161095e575b159081610955575b506109465767ffffffffffffffff1982166001175f5160206127ae5f395f51905f5255610796918361091a575b506107526126a4565b61075a6126a4565b6107626126a4565b60ff195f54165f556107726126a4565b61077a6126a4565b6107826126a4565b6001603255610790816123df565b5061248e565b507f13afe234b87b250e27c8e9cd269d4ebfc7af20d3fd4a3d9ade8196eb1de7d0035f8181525f51602061276e5f395f51905f526020527f97475e83412a1cd63371056cbdac3dc957c5781775cfda51d836c1614de0963880545f51602061278e5f395f51905f5291829055909290917fbd79b86ffe0ab8e8776151514217cd7cacd52c909f66475c3af44e129f0b00ff9080a47fe2b7fb3b832174769106daebcfd6d1970523240dda11281102db9363b83b0dc45f8181525f51602061276e5f395f51905f526020527fa9ed30483ca8e7e18edb58c7d68a44612fe881c88cebad0b52b41698e9844de380545f51602061278e5f395f51905f5291829055909290917fbd79b86ffe0ab8e8776151514217cd7cacd52c909f66475c3af44e129f0b00ff9080a46108c357005b68ff0000000000000000195f5160206127ae5f395f51905f5254165f5160206127ae5f395f51905f52557fc7f505b2f371ae2175ee4913f4499e1f2633a7b5936321eed1cdaeb6115181d2602060405160018152a1005b68ffffffffffffffffff191668010000000000000001175f5160206127ae5f395f51905f525583610749565b63f92ee8a960e01b5f5260045ffd5b9050158461071c565b303b159150610714565b84915061070a565b3461048a5761097e36612117565b9190610988612661565b815f52606460205260405f206109a3600882015415156121a3565b335f9081525f51602061272e5f395f51905f52602052604090205460ff168015610c37575b15610be6576007810160ff81541660048110156103e5578015908115610bdb575b5015610b7057805460ff19166003179055600b81016001600160401b03851161037d57610a168154611f1c565b601f8111610b2b575b50845f601f8211600114610a9c57917fa8f9cf79df61d13836307aed37c02f712f9eb648e006541f8d84dbcc0ebae595949391610a74935f91610a91575b508760011b905f198960031b1c1916179055612202565b93610a8c604051928392602084526020840191612183565b0390a3005b905084013588610a5d565b5f8381526020812092508790601f198216905b818110610b105750917fa8f9cf79df61d13836307aed37c02f712f9eb648e006541f8d84dbcc0ebae59596959391610a74959310610af7575b5050600187811b019055612202565b8501355f1960038a901b60f8161c191690558780610ae8565b8784013585556001909401936020938401938a935001610aaf565b815f5260205f20601f870160051c81019160208810610b66575b601f0160051c01905b818110610b5b5750610a1f565b5f8155600101610b4e565b9091508190610b45565b60405162461bcd60e51b815260206004820152603860248201527f4174746573746174696f6e52656769737472793a2063616e6e6f742072656a6560448201527f63742070726f636573736564206174746573746174696f6e00000000000000006064820152608490fd5b6001915014866109e9565b60405162461bcd60e51b815260206004820152602360248201527f4174746573746174696f6e52656769737472793a206e6f7420617574686f72696044820152621e995960ea1b6064820152608490fd5b50335f9081527f97475e83412a1cd63371056cbdac3dc957c5781775cfda51d836c1614de09637602052604090205460ff1680156109c8575060028101546001600160a01b031633146109c8565b3461048a575f36600319011261048a57610671604051610ca6604082611def565b60058152640352e302e360dc1b6020820152604051918291602083526020830190611ff4565b3461048a57602036600319011261048a57600435610ce861227e565b50805f526064602052610d03600860405f20015415156121a3565b5f52606460205260405f206040516105a581611dd3565b3461048a575f36600319011261048a5760206040515f8152f35b3461048a57602036600319011261048a576001600160a01b03610d55611e61565b165f52606660205260405f206040519081602082549182815201915f5260205f20905f5b818110610d9c5761067185610d9081870382611def565b60405191829182611eb6565b8254845260209093019260019283019201610d79565b3461048a57602036600319011261048a576004355f52606460205260405f20610dda81611f54565b600182015460028301546001600160a01b039081169391169190610e0060038201611f54565b600482015490610e1260058401611f54565b91610e1f60068501611f54565b92600785015460ff1693600886015491600987015493600a88015495600b8901610e4890611f54565b98600c0154996040519c8d9c8d926101a084526101a08401610e6991611ff4565b926020015260408d01528b810360608d0152610e8491611ff4565b9060808b015289810360a08b0152610e9b91611ff4565b88810360c08a0152610eac91611ff4565b9360e08801610eba91612018565b610100870152610120860152610140850152838103610160850152610ede91611ff4565b906101808301520390f35b3461048a575f36600319011261048a5760206040517fe2b7fb3b832174769106daebcfd6d1970523240dda11281102db9363b83b0dc48152f35b3461048a57604036600319011261048a57610f3c611e77565b6004355f525f51602061276e5f395f51905f5260205260405f209060018060a01b03165f52602052602060ff60405f2054166040519015158152f35b3461048a57604036600319011261048a57602435600435610f9761232a565b610f9f612661565b805f52606460205260405f20610fba600882015415156121a3565b600781019060ff82541660048110156103e55760010361101b57610ff491600260ff1982541617905542600a82015583600c820155612202565b907f5c2234fefcb5493f9f62aefc752f250efa3ec972ced5207e1ee19bd47d7055175f80a4005b60405162461bcd60e51b815260206004820152602160248201527f4174746573746174696f6e52656769737472793a206e6f7420766572696669656044820152601960fa1b6064820152608490fd5b3461048a575f36600319011261048a576110826122e1565b61108a612661565b600160ff195f5416175f557f62e78cea01bee320cd4e420270b5ea74000d11b0c9f74754ebdbfc544b05a2586020604051338152a1005b3461048a575f36600319011261048a5760206040515f51602061278e5f395f51905f528152f35b3461048a5760c036600319011261048a576004356001600160401b03811161048a57611118903690600401611eef565b90611121611e77565b6044356001600160a01b0381169390929084840361048a576064356001600160401b03811161048a57611158903690600401611eef565b9590926084359060a4356001600160401b03811161048a5761117e903690600401611eef565b909761118861232a565b611190612661565b85156117e8576001600160a01b03881697881561179457851561173c5784156116f857604051878582376020818981016065815203019020546116a1576068545f19811461168d576068602082600161123694018355604051948591838301978d8b8a378d8401926001600160601b03199060601b16858401526001600160601b03199060601b1660348301524260488301528482015203016048810184520182611def565b51902097885f52606460205260405f20916001600160401b03871161037d5761125f8354611f1c565b601f8111611648575b50865f601f82116001146115e4575f916115d9575b508760011b905f198960031b1c19161783555b60018301896001600160601b0360a01b82541617905560028301866001600160601b0360a01b825416179055600383016001600160401b038c1161037d578b6112d98254611f1c565b601f8111611592575b505f601f8211600114611529575f9161151e575b505f1960038e901b1c191660018d901b1790555b84600484015560058301916001600160401b03821161037d5761132d8354611f1c565b601f81116114d9575b509160209b9593918b9795935f90601f831160011461142d5791806114119694927f91d3442984e66dd10bacd1fe207138ae27f95aaee7d333b2a8a202991a4e98b09b9c96945f92611422575b50508160011b915f199060031b1c19161790555b6007810160ff19815416905560084291015587604051838382378d81858101606581520301902055895f5260668c526113d38860405f2061214a565b845f5260678c526113e78860405f2061214a565b81604051928392833781015f815203902096604051948594855260608c8601526060850191612183565b9060408301520390a4604051908152f35b013590505f80611383565b5f8481528f81209b969594939290601f198416905b8181106114a757509b600192849261141199989796957f91d3442984e66dd10bacd1fe207138ae27f95aaee7d333b2a8a202991a4e98b09e9f1061148e575b505050811b019055611397565b01355f19600384901b60f8161c191690555f8080611481565b92939597999b5090939597999b6020600181928787013581550195019201908f9b9997959392919c9a9896949c611442565b835f5260205f20601f840160051c81019160208510611514575b601f0160051c01905b8181106115095750611336565b5f81556001016114fc565b90915081906114f3565b90508901358d6112f6565b5f8381526020812092508e90601f198216905b8d8282106115745750501061155b575b505060018c811b01905561130a565b8a01355f1960038f901b60f8161c191690558c8061154c565b60209293508495839295600192013581550194019201908f9161153c565b825f5260205f20906020601f840160051c830193106115cf575b601f0160051c01905b8181106115c4578d91506112e2565b5f81556001016115b5565b90915081906115ac565b90508401358c61127d565b5f8581526020812092508990601f198216905b81811061162d575010611614575b5050600187811b018355611290565b8501355f1960038a901b60f8161c191690558b80611605565b8884013585556001909401936020938401938c9350016115f7565b835f5260205f20601f890160051c81019160208a10611683575b601f0160051c01905b8181106116785750611268565b5f815560010161166b565b9091508190611662565b634e487b7160e01b5f52601160045260245ffd5b60405162461bcd60e51b815260206004820152602960248201527f4174746573746174696f6e52656769737472793a206f7264657220616c72656160448201526864792065786973747360b81b6064820152608490fd5b606460405162461bcd60e51b815260206004820152602060248201527f4174746573746174696f6e52656769737472793a207a65726f207765696768746044820152fd5b60405162461bcd60e51b815260206004820152602a60248201527f4174746573746174696f6e52656769737472793a207a65726f20666163696c696044820152697479206164647265737360b01b6064820152608490fd5b60405162461bcd60e51b815260206004820152602660248201527f4174746573746174696f6e52656769737472793a207a65726f2075736572206160448201526564647265737360d01b6064820152608490fd5b60405162461bcd60e51b815260206004820152602260248201527f4174746573746174696f6e52656769737472793a20656d707479206f72646572604482015261125960f21b6064820152608490fd5b3461048a57602036600319011261048a576001600160a01b03611859611e61565b165f52606760205260405f206040519081602082549182815201915f5260205f20905f5b8181106118945761067185610d9081870382611def565b825484526020909301926001928301920161187d565b3461048a575f36600319011261048a57602060ff5f54166040519015158152f35b3461048a575f36600319011261048a577f00000000000000000000000000000000000000000000000000000000000000006001600160a01b031630036119225760206040515f51602061274e5f395f51905f528152f35b63703e46dd60e11b5f5260045ffd5b604036600319011261048a57611945611e61565b6024356001600160401b03811161048a573660238201121561048a57611975903690602481600401359101611e2b565b6001600160a01b037f000000000000000000000000000000000000000000000000000000000000000016308114908115611b14575b50611922576119b76122e1565b6040516352d1902d60e01b81526001600160a01b0383169290602081600481875afa5f9181611ae0575b506119f95783634c9c8ce360e01b5f5260045260245ffd5b805f51602061274e5f395f51905f52859203611ace5750813b15611abc575f51602061274e5f395f51905f5280546001600160a01b031916821790557fbc7cd75a20ee27fd9adebab32041f755214dbc6bffa90cc0225b39da2e5c2d3b5f80a2815115611aa4575f8083602061053595519101845af43d15611a9c573d91611a8083611e10565b92611a8e6040519485611def565b83523d5f602085013e6126cf565b6060916126cf565b505034611aad57005b63b398979f60e01b5f5260045ffd5b634c9c8ce360e01b5f5260045260245ffd5b632a87526960e21b5f5260045260245ffd5b9091506020813d602011611b0c575b81611afc60209383611def565b8101031261048a575190856119e1565b3d9150611aef565b5f51602061274e5f395f51905f52546001600160a01b031614159050836119aa565b3461048a575f36600319011261048a5760206040517f13afe234b87b250e27c8e9cd269d4ebfc7af20d3fd4a3d9ade8196eb1de7d0038152f35b3461048a575f36600319011261048a57611b886122e1565b5f5460ff811615611bc55760ff19165f557f5db9ee0a495bf2e6ff9c91a7834c1ba4fdd244a5e8aa4e537bd38aeae4b073aa6020604051338152a1005b60405162461bcd60e51b815260206004820152601460248201527314185d5cd8589b194e881b9bdd081c185d5cd95960621b6044820152606490fd5b3461048a57604036600319011261048a57611c1a611e77565b336001600160a01b03821603611c3657610535906004356125c5565b63334bd91960e11b5f5260045ffd5b3461048a57604036600319011261048a57610535600435611c64611e77565b90611c8a61052b825f525f51602061276e5f395f51905f52602052600160405f20015490565b612521565b3461048a57602036600319011261048a576020611cc66004355f525f51602061276e5f395f51905f52602052600160405f20015490565b604051908152f35b3461048a57604036600319011261048a57611ce7611e61565b6001600160a01b03165f9081526066602052604090208054602435919082101561048a576020916104d791611e8d565b3461048a57602036600319011261048a5760043563ffffffff60e01b811680910361048a57602090637965db0b60e01b8114908115611d5c575b506040519015158152f35b6301ffc9a760e01b14905082611d51565b3461048a57602036600319011261048a576004356001600160401b03811161048a573660238201121561048a57602080611db281933690602481600401359101611e2b565b604051928184925191829101835e8101606581520301902054604051908152f35b6101a081019081106001600160401b0382111761037d57604052565b90601f801991011681019081106001600160401b0382111761037d57604052565b6001600160401b03811161037d57601f01601f191660200190565b929192611e3782611e10565b91611e456040519384611def565b82948184528183011161048a578281602093845f960137010152565b600435906001600160a01b038216820361048a57565b602435906001600160a01b038216820361048a57565b8054821015611ea2575f5260205f2001905f90565b634e487b7160e01b5f52603260045260245ffd5b60206040818301928281528451809452019201905f5b818110611ed95750505090565b8251845260209384019390920191600101611ecc565b9181601f8401121561048a578235916001600160401b03831161048a576020838186019501011161048a57565b90600182811c92168015611f4a575b6020831014611f3657565b634e487b7160e01b5f52602260045260245ffd5b91607f1691611f2b565b9060405191825f825492611f6784611f1c565b8084529360018116908115611fd25750600114611f8e575b50611f8c92500383611def565b565b90505f9291925260205f20905f915b818310611fb6575050906020611f8c928201015f611f7f565b6020919350806001915483858901015201910190918492611f9d565b905060209250611f8c94915060ff191682840152151560051b8201015f611f7f565b805180835260209291819084018484015e5f828201840152601f01601f1916010190565b9060048210156103e55752565b602081526101a061018061210e6120c16120ab61208b61205188518760208a01526101c0890190611ff4565b60208901516001600160a01b0390811660408a8101919091528a0151166060808a0191909152890151888203601f190160808a0152611ff4565b608088015160a088015260a0880151601f198883030160c0890152611ff4565b60c0870151868203601f190160e0880152611ff4565b6120d460e0870151610100870190612018565b610100860151610120860152610120860151610140860152610140860151610160860152610160860151601f198683030184870152611ff4565b93015191015290565b90604060031983011261048a5760043591602435906001600160401b03821161048a5761214691600401611eef565b9091565b80546801000000000000000081101561037d5761216c91600182018155611e8d565b819291549060031b91821b915f19901b1916179055565b908060209392818452848401375f828201840152601f01601f1916010190565b156121aa57565b60405162461bcd60e51b815260206004820152602a60248201527f4174746573746174696f6e52656769737472793a206174746573746174696f6e604482015269081b9bdd08199bdd5b9960b21b6064820152608490fd5b60405180915f9080549061221582611f1c565b91600181169081156122675750600114612232575b505003902090565b9091505f5260205f205f905b82821061225057505081015f8061222a565b80548286015284935060209091019060010161223e565b60ff19168552505080151502820190505f8061222a565b6040519061228b82611dd3565b5f6101808360608152826020820152826040820152606080820152826080820152606060a0820152606060c08201528260e082015282610100820152826101208201528261014082015260606101608201520152565b335f9081525f51602061272e5f395f51905f52602052604090205460ff161561230657565b63e2517d3f60e01b5f52336004525f51602061278e5f395f51905f5260245260445ffd5b335f9081527fa9ed30483ca8e7e18edb58c7d68a44612fe881c88cebad0b52b41698e9844de2602052604090205460ff161561236257565b63e2517d3f60e01b5f52336004527fe2b7fb3b832174769106daebcfd6d1970523240dda11281102db9363b83b0dc460245260445ffd5b5f8181525f51602061276e5f395f51905f526020908152604080832033845290915290205460ff16156123c95750565b63e2517d3f60e01b5f523360045260245260445ffd5b6001600160a01b0381165f9081527fb7db2dd08fcb62d0c9e08c51941cae53c267786a0b75803fb7960902fc8ef97d602052604090205460ff16612489576001600160a01b03165f8181527fb7db2dd08fcb62d0c9e08c51941cae53c267786a0b75803fb7960902fc8ef97d60205260408120805460ff191660011790553391907f2f8788117e7eff1d82e926ec794901d17c78024a50270940304540a733656f0d8180a4600190565b505f90565b6001600160a01b0381165f9081525f51602061272e5f395f51905f52602052604090205460ff16612489576001600160a01b03165f8181525f51602061272e5f395f51905f5260205260408120805460ff191660011790553391905f51602061278e5f395f51905f52907f2f8788117e7eff1d82e926ec794901d17c78024a50270940304540a733656f0d9080a4600190565b5f8181525f51602061276e5f395f51905f52602090815260408083206001600160a01b038616845290915290205460ff166125bf575f8181525f51602061276e5f395f51905f52602090815260408083206001600160a01b0395909516808452949091528120805460ff19166001179055339291907f2f8788117e7eff1d82e926ec794901d17c78024a50270940304540a733656f0d9080a4600190565b50505f90565b5f8181525f51602061276e5f395f51905f52602090815260408083206001600160a01b038616845290915290205460ff16156125bf575f8181525f51602061276e5f395f51905f52602090815260408083206001600160a01b0395909516808452949091528120805460ff19169055339291907ff6391f5c32d9c69d2a47ea670b442974b53935d1edc7fd64eb21e047a839171b9080a4600190565b60ff5f541661266c57565b60405162461bcd60e51b815260206004820152601060248201526f14185d5cd8589b194e881c185d5cd95960821b6044820152606490fd5b60ff5f5160206127ae5f395f51905f525460401c16156126c057565b631afcd79f60e31b5f5260045ffd5b906126f357508051156126e457602081519101fd5b63d6bda27560e01b5f5260045ffd5b81511580612724575b612704575090565b639996b31560e01b5f9081526001600160a01b0391909116600452602490fd5b50803b156126fc56feb16e88c42fd4e48df2dd6a2eabd6bc9aec654ec170056b470819f8892cc6431c360894a13ba1a3210667c828492db98dca3e2076cc3735a920a3ca505d382bbc02dd7bc7dec4dceedda775e58dd541e08a116c6c53815c0bd028192f7b626800a49807205ce4d355092ef5a8a18f56e8913cf4a201fbe287825b095693c21775f0c57e16840df040f15088dc2f81fe391c3923bec73e23a9662efc9c229c6a00a264697066735822122024234478958cf6d8e256a99ef08303ef0ae93575c418ed28c9f701e5efca7dc164736f6c634300081e0033f0c57e16840df040f15088dc2f81fe391c3923bec73e23a9662efc9c229c6a00",
			"opcodes": "PUSH1 0xA0 DUP1 PUSH1 0x40 MSTORE CALLVALUE PUSH2 0xC2 JUMPI ADDRESS PUSH1 0x80 MSTORE PUSH0 MLOAD PUSH1 0x20 PUSH2 0x28CA PUSH0 CODECOPY PUSH0 MLOAD SWAP1 PUSH0 MSTORE SLOAD PUSH1 0xFF DUP2 PUSH1 0x40 SHR AND PUSH2 0xB3 JUMPI PUSH1 0x2 PUSH1 0x1 PUSH1 0x40 SHL SUB NOT PUSH1 0x1 PUSH1 0x1 PUSH1 0x40 SHL SUB DUP3 AND ADD PUSH2 0x60 JUMPI JUMPDEST PUSH1 0x40 MLOAD PUSH2 0x2803 SWAP1 DUP2 PUSH2 0xC7 DUP3 CODECOPY PUSH1 0x80 MLOAD DUP2 DUP2 DUP2 PUSH2 0x18DD ADD MSTORE PUSH2 0x197F ADD MSTORE RETURN JUMPDEST PUSH1 0x1 PUSH1 0x1 PUSH1 0x40 SHL SUB NOT AND PUSH1 0x1 PUSH1 0x1 PUSH1 0x40 SHL SUB SWAP1 DUP2 OR PUSH0 MLOAD PUSH1 0x20 PUSH2 0x28CA PUSH0 CODECOPY PUSH0 MLOAD SWAP1 PUSH0 MSTORE SSTORE DUP2 MSTORE PUSH32 0xC7F505B2F371AE2175EE4913F4499E1F2633A7B5936321EED1CDAEB6115181D2 SWAP1 PUSH1 0x20 SWAP1 LOG1 PUSH0 DUP1 PUSH2 0x41 JUMP JUMPDEST PUSH4 0xF92EE8A9 PUSH1 0xE0 SHL PUSH0 MSTORE PUSH1 0x4 PUSH0 REVERT JUMPDEST PUSH0 DUP1 REVERT INVALID PUSH1 0x80 PUSH1 0x40 MSTORE PUSH1 0x4 CALLDATASIZE LT ISZERO PUSH2 0x11 JUMPI PUSH0 DUP1 REVERT JUMPDEST PUSH0 CALLDATALOAD PUSH1 0xE0 SHR DUP1 PUSH4 0x1060A4F EQ PUSH2 0x1D6D JUMPI DUP1 PUSH4 0x1FFC9A7 EQ PUSH2 0x1D17 JUMPI DUP1 PUSH4 0x1CF2BBC9 EQ PUSH2 0x1CCE JUMPI DUP1 PUSH4 0x248A9CA3 EQ PUSH2 0x1C8F JUMPI DUP1 PUSH4 0x2F2FF15D EQ PUSH2 0x1C45 JUMPI DUP1 PUSH4 0x36568ABE EQ PUSH2 0x1C01 JUMPI DUP1 PUSH4 0x3F4BA83A EQ PUSH2 0x1B70 JUMPI DUP1 PUSH4 0x4498B868 EQ PUSH2 0x1B36 JUMPI DUP1 PUSH4 0x4F1EF286 EQ PUSH2 0x1931 JUMPI DUP1 PUSH4 0x52D1902D EQ PUSH2 0x18CB JUMPI DUP1 PUSH4 0x5C975ABB EQ PUSH2 0x18AA JUMPI DUP1 PUSH4 0x5CB009AA EQ PUSH2 0x1838 JUMPI DUP1 PUSH4 0x6FB2D341 EQ PUSH2 0x10E8 JUMPI DUP1 PUSH4 0x75B238FC EQ PUSH2 0x10C1 JUMPI DUP1 PUSH4 0x8456CB59 EQ PUSH2 0x106A JUMPI DUP1 PUSH4 0x8F91B49A EQ PUSH2 0xF78 JUMPI DUP1 PUSH4 0x91D14854 EQ PUSH2 0xF23 JUMPI DUP1 PUSH4 0x926D7D7F EQ PUSH2 0xEE9 JUMPI DUP1 PUSH4 0x940992A3 EQ PUSH2 0xDB2 JUMPI DUP1 PUSH4 0x9658E1EF EQ PUSH2 0xD34 JUMPI DUP1 PUSH4 0xA217FDDF EQ PUSH2 0xD1A JUMPI DUP1 PUSH4 0xA3112A64 EQ PUSH2 0xCCC JUMPI DUP1 PUSH4 0xAD3CB1CC EQ PUSH2 0xC85 JUMPI DUP1 PUSH4 0xAFC5794C EQ PUSH2 0x970 JUMPI DUP1 PUSH4 0xC4D66DE8 EQ PUSH2 0x6C6 JUMPI DUP1 PUSH4 0xC65B3344 EQ PUSH2 0x537 JUMPI DUP1 PUSH4 0xD547741F EQ PUSH2 0x4E6 JUMPI DUP1 PUSH4 0xDDB040E9 EQ PUSH2 0x48E JUMPI PUSH4 0xEBFDE32B EQ PUSH2 0x158 JUMPI PUSH0 DUP1 REVERT JUMPDEST CALLVALUE PUSH2 0x48A JUMPI PUSH2 0x166 CALLDATASIZE PUSH2 0x2117 JUMP JUMPDEST CALLER PUSH0 SWAP1 DUP2 MSTORE PUSH32 0x97475E83412A1CD63371056CBDAC3DC957C5781775CFDA51D836C1614DE09637 PUSH1 0x20 MSTORE PUSH1 0x40 SWAP1 KECCAK256 SLOAD SWAP1 SWAP2 SWAP1 PUSH1 0xFF AND ISZERO PUSH2 0x453 JUMPI PUSH2 0x1A7 PUSH2 0x2661 JUMP JUMPDEST DUP3 PUSH0 MSTORE PUSH1 0x64 PUSH1 0x20 MSTORE PUSH1 0x40 PUSH0 KECCAK256 SWAP3 PUSH2 0x1C3 PUSH1 0x8 DUP6 ADD SLOAD ISZERO ISZERO PUSH2 0x21A3 JUMP JUMPDEST PUSH1 0x2 DUP5 ADD SLOAD CALLER PUSH1 0x1 PUSH1 0x1 PUSH1 0xA0 SHL SUB SWAP1 SWAP2 AND SUB PUSH2 0x3F9 JUMPI PUSH1 0x7 DUP5 ADD SWAP4 PUSH1 0xFF DUP6 SLOAD AND PUSH1 0x4 DUP2 LT ISZERO PUSH2 0x3E5 JUMPI PUSH2 0x391 JUMPI PUSH1 0x6 DUP2 ADD SWAP5 PUSH1 0x1 PUSH1 0x1 PUSH1 0x40 SHL SUB DUP6 GT PUSH2 0x37D JUMPI PUSH2 0x20D DUP7 SLOAD PUSH2 0x1F1C JUMP JUMPDEST PUSH1 0x1F DUP2 GT PUSH2 0x338 JUMPI JUMPDEST POP PUSH0 SWAP6 PUSH1 0x1F DUP7 GT PUSH1 0x1 EQ PUSH2 0x2AA JUMPI SWAP2 PUSH2 0x283 SWAP2 PUSH2 0x29A SWAP4 DUP8 PUSH32 0xAB27CC063C9F317505B2D01D797112964A506A9F4F4E67C34596391A83F259C8 SWAP7 SWAP8 SWAP9 SWAP10 PUSH0 SWAP2 PUSH2 0x29F JUMPI JUMPDEST POP DUP10 PUSH1 0x1 SHL SWAP1 PUSH0 NOT DUP12 PUSH1 0x3 SHL SHR NOT AND OR SWAP1 SSTORE JUMPDEST DUP1 SLOAD PUSH1 0xFF NOT AND PUSH1 0x1 OR SWAP1 SSTORE TIMESTAMP PUSH1 0x9 DUP3 ADD SSTORE PUSH2 0x2202 JUMP JUMPDEST SWAP4 PUSH1 0x40 MLOAD SWAP2 DUP3 SWAP2 PUSH1 0x20 DUP4 MSTORE CALLER SWAP8 PUSH1 0x20 DUP5 ADD SWAP2 PUSH2 0x2183 JUMP JUMPDEST SUB SWAP1 LOG4 STOP JUMPDEST SWAP1 POP DUP9 ADD CALLDATALOAD PUSH0 PUSH2 0x25A JUMP JUMPDEST PUSH1 0x1F NOT DUP7 AND DUP2 PUSH0 MSTORE PUSH1 0x20 PUSH0 KECCAK256 SWAP1 PUSH0 JUMPDEST DUP2 DUP2 LT PUSH2 0x320 JUMPI POP SWAP2 PUSH2 0x283 SWAP4 SWAP2 DUP9 SWAP10 PUSH32 0xAB27CC063C9F317505B2D01D797112964A506A9F4F4E67C34596391A83F259C8 SWAP8 SWAP9 SWAP10 PUSH2 0x29A SWAP8 SWAP6 LT PUSH2 0x307 JUMPI JUMPDEST POP POP PUSH1 0x1 DUP10 DUP2 SHL ADD SWAP1 SSTORE PUSH2 0x26D JUMP JUMPDEST DUP10 ADD CALLDATALOAD PUSH0 NOT PUSH1 0x3 DUP13 SWAP1 SHL PUSH1 0xF8 AND SHR NOT AND SWAP1 SSTORE PUSH0 DUP1 PUSH2 0x2F8 JUMP JUMPDEST DUP8 DUP11 ADD CALLDATALOAD DUP4 SSTORE PUSH1 0x20 SWAP10 DUP11 ADD SWAP10 PUSH1 0x1 SWAP1 SWAP4 ADD SWAP3 ADD PUSH2 0x2B9 JUMP JUMPDEST DUP7 PUSH0 MSTORE PUSH1 0x20 PUSH0 KECCAK256 PUSH1 0x1F DUP8 ADD PUSH1 0x5 SHR DUP2 ADD SWAP2 PUSH1 0x20 DUP9 LT PUSH2 0x373 JUMPI JUMPDEST PUSH1 0x1F ADD PUSH1 0x5 SHR ADD SWAP1 JUMPDEST DUP2 DUP2 LT PUSH2 0x368 JUMPI POP PUSH2 0x216 JUMP JUMPDEST PUSH0 DUP2 SSTORE PUSH1 0x1 ADD PUSH2 0x35B JUMP JUMPDEST SWAP1 SWAP2 POP DUP2 SWAP1 PUSH2 0x352 JUMP JUMPDEST PUSH4 0x4E487B71 PUSH1 0xE0 SHL PUSH0 MSTORE PUSH1 0x41 PUSH1 0x4 MSTORE PUSH1 0x24 PUSH0 REVERT JUMPDEST PUSH1 0x40 MLOAD PUSH3 0x461BCD PUSH1 0xE5 SHL DUP2 MSTORE PUSH1 0x20 PUSH1 0x4 DUP3 ADD MSTORE PUSH1 0x26 PUSH1 0x24 DUP3 ADD MSTORE PUSH32 0x4174746573746174696F6E52656769737472793A20616C72656164792070726F PUSH1 0x44 DUP3 ADD MSTORE PUSH6 0x18D95CDCD959 PUSH1 0xD2 SHL PUSH1 0x64 DUP3 ADD MSTORE PUSH1 0x84 SWAP1 REVERT JUMPDEST PUSH4 0x4E487B71 PUSH1 0xE0 SHL PUSH0 MSTORE PUSH1 0x21 PUSH1 0x4 MSTORE PUSH1 0x24 PUSH0 REVERT JUMPDEST PUSH1 0x40 MLOAD PUSH3 0x461BCD PUSH1 0xE5 SHL DUP2 MSTORE PUSH1 0x20 PUSH1 0x4 DUP3 ADD MSTORE PUSH1 0x2C PUSH1 0x24 DUP3 ADD MSTORE PUSH32 0x4174746573746174696F6E52656769737472793A206E6F7420617574686F7269 PUSH1 0x44 DUP3 ADD MSTORE PUSH12 0x7A656420666163696C697479 PUSH1 0xA0 SHL PUSH1 0x64 DUP3 ADD MSTORE PUSH1 0x84 SWAP1 REVERT JUMPDEST PUSH4 0xE2517D3F PUSH1 0xE0 SHL PUSH0 MSTORE CALLER PUSH1 0x4 MSTORE PUSH32 0x13AFE234B87B250E27C8E9CD269D4EBFC7AF20D3FD4A3D9ADE8196EB1DE7D003 PUSH1 0x24 MSTORE PUSH1 0x44 PUSH0 REVERT JUMPDEST PUSH0 DUP1 REVERT JUMPDEST CALLVALUE PUSH2 0x48A JUMPI PUSH1 0x40 CALLDATASIZE PUSH1 0x3 NOT ADD SLT PUSH2 0x48A JUMPI PUSH2 0x4A7 PUSH2 0x1E61 JUMP JUMPDEST PUSH1 0x1 PUSH1 0x1 PUSH1 0xA0 SHL SUB AND PUSH0 SWAP1 DUP2 MSTORE PUSH1 0x67 PUSH1 0x20 MSTORE PUSH1 0x40 SWAP1 KECCAK256 DUP1 SLOAD PUSH1 0x24 CALLDATALOAD SWAP2 SWAP1 DUP3 LT ISZERO PUSH2 0x48A JUMPI PUSH1 0x20 SWAP2 PUSH2 0x4D7 SWAP2 PUSH2 0x1E8D JUMP JUMPDEST SWAP1 SLOAD SWAP1 PUSH1 0x3 SHL SHR PUSH1 0x40 MLOAD SWAP1 DUP2 MSTORE RETURN JUMPDEST CALLVALUE PUSH2 0x48A JUMPI PUSH1 0x40 CALLDATASIZE PUSH1 0x3 NOT ADD SLT PUSH2 0x48A JUMPI PUSH2 0x535 PUSH1 0x4 CALLDATALOAD PUSH2 0x505 PUSH2 0x1E77 JUMP JUMPDEST SWAP1 PUSH2 0x530 PUSH2 0x52B DUP3 PUSH0 MSTORE PUSH0 MLOAD PUSH1 0x20 PUSH2 0x276E PUSH0 CODECOPY PUSH0 MLOAD SWAP1 PUSH0 MSTORE PUSH1 0x20 MSTORE PUSH1 0x1 PUSH1 0x40 PUSH0 KECCAK256 ADD SLOAD SWAP1 JUMP JUMPDEST PUSH2 0x2399 JUMP JUMPDEST PUSH2 0x25C5 JUMP JUMPDEST STOP JUMPDEST CALLVALUE PUSH2 0x48A JUMPI PUSH1 0x20 CALLDATASIZE PUSH1 0x3 NOT ADD SLT PUSH2 0x48A JUMPI PUSH1 0x4 CALLDATALOAD PUSH1 0x1 PUSH1 0x1 PUSH1 0x40 SHL SUB DUP2 GT PUSH2 0x48A JUMPI PUSH2 0x569 PUSH1 0x20 SWAP2 CALLDATASIZE SWAP1 PUSH1 0x4 ADD PUSH2 0x1EEF JUMP JUMPDEST SWAP2 SWAP1 PUSH2 0x573 PUSH2 0x227E JUMP JUMPDEST POP DUP3 PUSH1 0x40 MLOAD SWAP4 DUP5 SWAP3 DUP4 CALLDATACOPY DUP2 ADD PUSH1 0x65 DUP2 MSTORE SUB ADD SWAP1 KECCAK256 SLOAD DUP1 ISZERO PUSH2 0x675 JUMPI PUSH0 MSTORE PUSH1 0x64 PUSH1 0x20 MSTORE PUSH1 0x40 PUSH0 KECCAK256 PUSH1 0x40 MLOAD PUSH2 0x5A5 DUP2 PUSH2 0x1DD3 JUMP JUMPDEST PUSH2 0x5AE DUP3 PUSH2 0x1F54 JUMP JUMPDEST DUP2 MSTORE PUSH1 0x1 DUP3 ADD SLOAD PUSH1 0x1 PUSH1 0x1 PUSH1 0xA0 SHL SUB SWAP1 DUP2 AND PUSH1 0x20 DUP4 ADD MSTORE PUSH1 0x2 DUP4 ADD SLOAD AND PUSH1 0x40 DUP3 ADD MSTORE PUSH2 0x5DC PUSH1 0x3 DUP4 ADD PUSH2 0x1F54 JUMP JUMPDEST PUSH1 0x60 DUP3 ADD MSTORE PUSH1 0x4 DUP3 ADD SLOAD PUSH1 0x80 DUP3 ADD MSTORE PUSH2 0x5F7 PUSH1 0x5 DUP4 ADD PUSH2 0x1F54 JUMP JUMPDEST PUSH1 0xA0 DUP3 ADD MSTORE PUSH2 0x608 PUSH1 0x6 DUP4 ADD PUSH2 0x1F54 JUMP JUMPDEST PUSH1 0xC0 DUP3 ADD MSTORE PUSH1 0xFF PUSH1 0x7 DUP4 ADD SLOAD AND PUSH1 0x4 DUP2 LT ISZERO PUSH2 0x3E5 JUMPI PUSH2 0x671 SWAP3 PUSH1 0xC SWAP2 PUSH1 0xE0 DUP5 ADD MSTORE PUSH1 0x8 DUP2 ADD SLOAD PUSH2 0x100 DUP5 ADD MSTORE PUSH1 0x9 DUP2 ADD SLOAD PUSH2 0x120 DUP5 ADD MSTORE PUSH1 0xA DUP2 ADD SLOAD PUSH2 0x140 DUP5 ADD MSTORE PUSH2 0x657 PUSH1 0xB DUP3 ADD PUSH2 0x1F54 JUMP JUMPDEST PUSH2 0x160 DUP5 ADD MSTORE ADD SLOAD PUSH2 0x180 DUP3 ADD MSTORE PUSH1 0x40 MLOAD SWAP2 DUP3 SWAP2 DUP3 PUSH2 0x2025 JUMP JUMPDEST SUB SWAP1 RETURN JUMPDEST PUSH1 0x40 MLOAD PUSH3 0x461BCD PUSH1 0xE5 SHL DUP2 MSTORE PUSH1 0x20 PUSH1 0x4 DUP3 ADD MSTORE PUSH1 0x24 DUP1 DUP3 ADD MSTORE PUSH32 0x4174746573746174696F6E52656769737472793A206F72646572206E6F742066 PUSH1 0x44 DUP3 ADD MSTORE PUSH4 0x1BDD5B99 PUSH1 0xE2 SHL PUSH1 0x64 DUP3 ADD MSTORE PUSH1 0x84 SWAP1 REVERT JUMPDEST CALLVALUE PUSH2 0x48A JUMPI PUSH1 0x20 CALLDATASIZE PUSH1 0x3 NOT ADD SLT PUSH2 0x48A JUMPI PUSH2 0x6DF PUSH2 0x1E61 JUMP JUMPDEST PUSH0 MLOAD PUSH1 0x20 PUSH2 0x27AE PUSH0 CODECOPY PUSH0 MLOAD SWAP1 PUSH0 MSTORE SLOAD PUSH1 0xFF DUP2 PUSH1 0x40 SHR AND ISZERO SWAP2 PUSH1 0x1 PUSH1 0x1 PUSH1 0x40 SHL SUB DUP3 AND DUP1 ISZERO SWAP1 DUP2 PUSH2 0x968 JUMPI JUMPDEST PUSH1 0x1 EQ SWAP1 DUP2 PUSH2 0x95E JUMPI JUMPDEST ISZERO SWAP1 DUP2 PUSH2 0x955 JUMPI JUMPDEST POP PUSH2 0x946 JUMPI PUSH8 0xFFFFFFFFFFFFFFFF NOT DUP3 AND PUSH1 0x1 OR PUSH0 MLOAD PUSH1 0x20 PUSH2 0x27AE PUSH0 CODECOPY PUSH0 MLOAD SWAP1 PUSH0 MSTORE SSTORE PUSH2 0x796 SWAP2 DUP4 PUSH2 0x91A JUMPI JUMPDEST POP PUSH2 0x752 PUSH2 0x26A4 JUMP JUMPDEST PUSH2 0x75A PUSH2 0x26A4 JUMP JUMPDEST PUSH2 0x762 PUSH2 0x26A4 JUMP JUMPDEST PUSH1 0xFF NOT PUSH0 SLOAD AND PUSH0 SSTORE PUSH2 0x772 PUSH2 0x26A4 JUMP JUMPDEST PUSH2 0x77A PUSH2 0x26A4 JUMP JUMPDEST PUSH2 0x782 PUSH2 0x26A4 JUMP JUMPDEST PUSH1 0x1 PUSH1 0x32 SSTORE PUSH2 0x790 DUP2 PUSH2 0x23DF JUMP JUMPDEST POP PUSH2 0x248E JUMP JUMPDEST POP PUSH32 0x13AFE234B87B250E27C8E9CD269D4EBFC7AF20D3FD4A3D9ADE8196EB1DE7D003 PUSH0 DUP2 DUP2 MSTORE PUSH0 MLOAD PUSH1 0x20 PUSH2 0x276E PUSH0 CODECOPY PUSH0 MLOAD SWAP1 PUSH0 MSTORE PUSH1 0x20 MSTORE PUSH32 0x97475E83412A1CD63371056CBDAC3DC957C5781775CFDA51D836C1614DE09638 DUP1 SLOAD PUSH0 MLOAD PUSH1 0x20 PUSH2 0x278E PUSH0 CODECOPY PUSH0 MLOAD SWAP1 PUSH0 MSTORE SWAP2 DUP3 SWAP1 SSTORE SWAP1 SWAP3 SWAP1 SWAP2 PUSH32 0xBD79B86FFE0AB8E8776151514217CD7CACD52C909F66475C3AF44E129F0B00FF SWAP1 DUP1 LOG4 PUSH32 0xE2B7FB3B832174769106DAEBCFD6D1970523240DDA11281102DB9363B83B0DC4 PUSH0 DUP2 DUP2 MSTORE PUSH0 MLOAD PUSH1 0x20 PUSH2 0x276E PUSH0 CODECOPY PUSH0 MLOAD SWAP1 PUSH0 MSTORE PUSH1 0x20 MSTORE PUSH32 0xA9ED30483CA8E7E18EDB58C7D68A44612FE881C88CEBAD0B52B41698E9844DE3 DUP1 SLOAD PUSH0 MLOAD PUSH1 0x20 PUSH2 0x278E PUSH0 CODECOPY PUSH0 MLOAD SWAP1 PUSH0 MSTORE SWAP2 DUP3 SWAP1 SSTORE SWAP1 SWAP3 SWAP1 SWAP2 PUSH32 0xBD79B86FFE0AB8E8776151514217CD7CACD52C909F66475C3AF44E129F0B00FF SWAP1 DUP1 LOG4 PUSH2 0x8C3 JUMPI STOP JUMPDEST PUSH9 0xFF0000000000000000 NOT PUSH0 MLOAD PUSH1 0x20 PUSH2 0x27AE PUSH0 CODECOPY PUSH0 MLOAD SWAP1 PUSH0 MSTORE SLOAD AND PUSH0 MLOAD PUSH1 0x20 PUSH2 0x27AE PUSH0 CODECOPY PUSH0 MLOAD SWAP1 PUSH0 MSTORE SSTORE PUSH32 0xC7F505B2F371AE2175EE4913F4499E1F2633A7B5936321EED1CDAEB6115181D2 PUSH1 0x20 PUSH1 0x40 MLOAD PUSH1 0x1 DUP2 MSTORE LOG1 STOP JUMPDEST PUSH9 0xFFFFFFFFFFFFFFFFFF NOT AND PUSH9 0x10000000000000001 OR PUSH0 MLOAD PUSH1 0x20 PUSH2 0x27AE PUSH0 CODECOPY PUSH0 MLOAD SWAP1 PUSH0 MSTORE SSTORE DUP4 PUSH2 0x749 JUMP JUMPDEST PUSH4 0xF92EE8A9 PUSH1 0xE0 SHL PUSH0 MSTORE PUSH1 0x4 PUSH0 REVERT JUMPDEST SWAP1 POP ISZERO DUP5 PUSH2 0x71C JUMP JUMPDEST ADDRESS EXTCODESIZE ISZERO SWAP2 POP PUSH2 0x714 JUMP JUMPDEST DUP5 SWAP2 POP PUSH2 0x70A JUMP JUMPDEST CALLVALUE PUSH2 0x48A JUMPI PUSH2 0x97E CALLDATASIZE PUSH2 0x2117 JUMP JUMPDEST SWAP2 SWAP1 PUSH2 0x988 PUSH2 0x2661 JUMP JUMPDEST DUP2 PUSH0 MSTORE PUSH1 0x64 PUSH1 0x20 MSTORE PUSH1 0x40 PUSH0 KECCAK256 PUSH2 0x9A3 PUSH1 0x8 DUP3 ADD SLOAD ISZERO ISZERO PUSH2 0x21A3 JUMP JUMPDEST CALLER PUSH0 SWAP1 DUP2 MSTORE PUSH0 MLOAD PUSH1 0x20 PUSH2 0x272E PUSH0 CODECOPY PUSH0 MLOAD SWAP1 PUSH0 MSTORE PUSH1 0x20 MSTORE PUSH1 0x40 SWAP1 KECCAK256 SLOAD PUSH1 0xFF AND DUP1 ISZERO PUSH2 0xC37 JUMPI JUMPDEST ISZERO PUSH2 0xBE6 JUMPI PUSH1 0x7 DUP2 ADD PUSH1 0xFF DUP2 SLOAD AND PUSH1 0x4 DUP2 LT ISZERO PUSH2 0x3E5 JUMPI DUP1 ISZERO SWAP1 DUP2 ISZERO PUSH2 0xBDB JUMPI JUMPDEST POP ISZERO PUSH2 0xB70 JUMPI DUP1 SLOAD PUSH1 0xFF NOT AND PUSH1 0x3 OR SWAP1 SSTORE PUSH1 0xB DUP2 ADD PUSH1 0x1 PUSH1 0x1 PUSH1 0x40 SHL SUB DUP6 GT PUSH2 0x37D JUMPI PUSH2 0xA16 DUP2 SLOAD PUSH2 0x1F1C JUMP JUMPDEST PUSH1 0x1F DUP2 GT PUSH2 0xB2B JUMPI JUMPDEST POP DUP5 PUSH0 PUSH1 0x1F DUP3 GT PUSH1 0x1 EQ PUSH2 0xA9C JUMPI SWAP2 PUSH32 0xA8F9CF79DF61D13836307AED37C02F712F9EB648E006541F8D84DBCC0EBAE595 SWAP5 SWAP4 SWAP2 PUSH2 0xA74 SWAP4 PUSH0 SWAP2 PUSH2 0xA91 JUMPI JUMPDEST POP DUP8 PUSH1 0x1 SHL SWAP1 PUSH0 NOT DUP10 PUSH1 0x3 SHL SHR NOT AND OR SWAP1 SSTORE PUSH2 0x2202 JUMP JUMPDEST SWAP4 PUSH2 0xA8C PUSH1 0x40 MLOAD SWAP3 DUP4 SWAP3 PUSH1 0x20 DUP5 MSTORE PUSH1 0x20 DUP5 ADD SWAP2 PUSH2 0x2183 JUMP JUMPDEST SUB SWAP1 LOG3 STOP JUMPDEST SWAP1 POP DUP5 ADD CALLDATALOAD DUP9 PUSH2 0xA5D JUMP JUMPDEST PUSH0 DUP4 DUP2 MSTORE PUSH1 0x20 DUP2 KECCAK256 SWAP3 POP DUP8 SWAP1 PUSH1 0x1F NOT DUP3 AND SWAP1 JUMPDEST DUP2 DUP2 LT PUSH2 0xB10 JUMPI POP SWAP2 PUSH32 0xA8F9CF79DF61D13836307AED37C02F712F9EB648E006541F8D84DBCC0EBAE595 SWAP7 SWAP6 SWAP4 SWAP2 PUSH2 0xA74 SWAP6 SWAP4 LT PUSH2 0xAF7 JUMPI JUMPDEST POP POP PUSH1 0x1 DUP8 DUP2 SHL ADD SWAP1 SSTORE PUSH2 0x2202 JUMP JUMPDEST DUP6 ADD CALLDATALOAD PUSH0 NOT PUSH1 0x3 DUP11 SWAP1 SHL PUSH1 0xF8 AND SHR NOT AND SWAP1 SSTORE DUP8 DUP1 PUSH2 0xAE8 JUMP JUMPDEST DUP8 DUP5 ADD CALLDATALOAD DUP6 SSTORE PUSH1 0x1 SWAP1 SWAP5 ADD SWAP4 PUSH1 0x20 SWAP4 DUP5 ADD SWAP4 DUP11 SWAP4 POP ADD PUSH2 0xAAF JUMP JUMPDEST DUP2 PUSH0 MSTORE PUSH1 0x20 PUSH0 KECCAK256 PUSH1 0x1F DUP8 ADD PUSH1 0x5 SHR DUP2 ADD SWAP2 PUSH1 0x20 DUP9 LT PUSH2 0xB66 JUMPI JUMPDEST PUSH1 0x1F ADD PUSH1 0x5 SHR ADD SWAP1 JUMPDEST DUP2 DUP2 LT PUSH2 0xB5B JUMPI POP PUSH2 0xA1F JUMP JUMPDEST PUSH0 DUP2 SSTORE PUSH1 0x1 ADD PUSH2 0xB4E JUMP JUMPDEST SWAP1 SWAP2 POP DUP2 SWAP1 PUSH2 0xB45 JUMP JUMPDEST PUSH1 0x40 MLOAD PUSH3 0x461BCD PUSH1 0xE5 SHL DUP2 MSTORE PUSH1 0x20 PUSH1 0x4 DUP3 ADD MSTORE PUSH1 0x38 PUSH1 0x24 DUP3 ADD MSTORE PUSH32 0x4174746573746174696F6E52656769737472793A2063616E6E6F742072656A65 PUSH1 0x44 DUP3 ADD MSTORE PUSH32 0x63742070726F636573736564206174746573746174696F6E0000000000000000 PUSH1 0x64 DUP3 ADD MSTORE PUSH1 0x84 SWAP1 REVERT JUMPDEST PUSH1 0x1 SWAP2 POP EQ DUP7 PUSH2 0x9E9 JUMP JUMPDEST PUSH1 0x40 MLOAD PUSH3 0x461BCD PUSH1 0xE5 SHL DUP2 MSTORE PUSH1 0x20 PUSH1 0x4 DUP3 ADD MSTORE PUSH1 0x23 PUSH1 0x24 DUP3 ADD MSTORE PUSH32 0x4174746573746174696F6E52656769737472793A206E6F7420617574686F7269 PUSH1 0x44 DUP3 ADD MSTORE PUSH3 0x1E9959 PUSH1 0xEA SHL PUSH1 0x64 DUP3 ADD MSTORE PUSH1 0x84 SWAP1 REVERT JUMPDEST POP CALLER PUSH0 SWAP1 DUP2 MSTORE PUSH32 0x97475E83412A1CD63371056CBDAC3DC957C5781775CFDA51D836C1614DE09637 PUSH1 0x20 MSTORE PUSH1 0x40 SWAP1 KECCAK256 SLOAD PUSH1 0xFF AND DUP1 ISZERO PUSH2 0x9C8 JUMPI POP PUSH1 0x2 DUP2 ADD SLOAD PUSH1 0x1 PUSH1 0x1 PUSH1 0xA0 SHL SUB AND CALLER EQ PUSH2 0x9C8 JUMP JUMPDEST CALLVALUE PUSH2 0x48A JUMPI PUSH0 CALLDATASIZE PUSH1 0x3 NOT ADD SLT PUSH2 0x48A JUMPI PUSH2 0x671 PUSH1 0x40 MLOAD PUSH2 0xCA6 PUSH1 0x40 DUP3 PUSH2 0x1DEF JUMP JUMPDEST PUSH1 0x5 DUP2 MSTORE PUSH5 0x352E302E3 PUSH1 0xDC SHL PUSH1 0x20 DUP3 ADD MSTORE PUSH1 0x40 MLOAD SWAP2 DUP3 SWAP2 PUSH1 0x20 DUP4 MSTORE PUSH1 0x20 DUP4 ADD SWAP1 PUSH2 0x1FF4 JUMP JUMPDEST CALLVALUE PUSH2 0x48A JUMPI PUSH1 0x20 CALLDATASIZE PUSH1 0x3 NOT ADD SLT PUSH2 0x48A JUMPI PUSH1 0x4 CALLDATALOAD PUSH2 0xCE8 PUSH2 0x227E JUMP JUMPDEST POP DUP1 PUSH0 MSTORE PUSH1 0x64 PUSH1 0x20 MSTORE PUSH2 0xD03 PUSH1 0x8 PUSH1 0x40 PUSH0 KECCAK256 ADD SLOAD ISZERO ISZERO PUSH2 0x21A3 JUMP JUMPDEST PUSH0 MSTORE PUSH1 0x64 PUSH1 0x20 MSTORE PUSH1 0x40 PUSH0 KECCAK256 PUSH1 0x40 MLOAD PUSH2 0x5A5 DUP2 PUSH2 0x1DD3 JUMP JUMPDEST CALLVALUE PUSH2 0x48A JUMPI PUSH0 CALLDATASIZE PUSH1 0x3 NOT ADD SLT PUSH2 0x48A JUMPI PUSH1 0x20 PUSH1 0x40 MLOAD PUSH0 DUP2 MSTORE RETURN JUMPDEST CALLVALUE PUSH2 0x48A JUMPI PUSH1 0x20 CALLDATASIZE PUSH1 0x3 NOT ADD SLT PUSH2 0x48A JUMPI PUSH1 0x1 PUSH1 0x1 PUSH1 0xA0 SHL SUB PUSH2 0xD55 PUSH2 0x1E61 JUMP JUMPDEST AND PUSH0 MSTORE PUSH1 0x66 PUSH1 0x20 MSTORE PUSH1 0x40 PUSH0 KECCAK256 PUSH1 0x40 MLOAD SWAP1 DUP2 PUSH1 0x20 DUP3 SLOAD SWAP2 DUP3 DUP2 MSTORE ADD SWAP2 PUSH0 MSTORE PUSH1 0x20 PUSH0 KECCAK256 SWAP1 PUSH0 JUMPDEST DUP2 DUP2 LT PUSH2 0xD9C JUMPI PUSH2 0x671 DUP6 PUSH2 0xD90 DUP2 DUP8 SUB DUP3 PUSH2 0x1DEF JUMP JUMPDEST PUSH1 0x40 MLOAD SWAP2 DUP3 SWAP2 DUP3 PUSH2 0x1EB6 JUMP JUMPDEST DUP3 SLOAD DUP5 MSTORE PUSH1 0x20 SWAP1 SWAP4 ADD SWAP3 PUSH1 0x1 SWAP3 DUP4 ADD SWAP3 ADD PUSH2 0xD79 JUMP JUMPDEST CALLVALUE PUSH2 0x48A JUMPI PUSH1 0x20 CALLDATASIZE PUSH1 0x3 NOT ADD SLT PUSH2 0x48A JUMPI PUSH1 0x4 CALLDATALOAD PUSH0 MSTORE PUSH1 0x64 PUSH1 0x20 MSTORE PUSH1 0x40 PUSH0 KECCAK256 PUSH2 0xDDA DUP2 PUSH2 0x1F54 JUMP JUMPDEST PUSH1 0x1 DUP3 ADD SLOAD PUSH1 0x2 DUP4 ADD SLOAD PUSH1 0x1 PUSH1 0x1 PUSH1 0xA0 SHL SUB SWAP1 DUP2 AND SWAP4 SWAP2 AND SWAP2 SWAP1 PUSH2 0xE00 PUSH1 0x3 DUP3 ADD PUSH2 0x1F54 JUMP JUMPDEST PUSH1 0x4 DUP3 ADD SLOAD SWAP1 PUSH2 0xE12 PUSH1 0x5 DUP5 ADD PUSH2 0x1F54 JUMP JUMPDEST SWAP2 PUSH2 0xE1F PUSH1 0x6 DUP6 ADD PUSH2 0x1F54 JUMP JUMPDEST SWAP3 PUSH1 0x7 DUP6 ADD SLOAD PUSH1 0xFF AND SWAP4 PUSH1 0x8 DUP7 ADD SLOAD SWAP2 PUSH1 0x9 DUP8 ADD SLOAD SWAP4 PUSH1 0xA DUP9 ADD SLOAD SWAP6 PUSH1 0xB DUP10 ADD PUSH2 0xE48 SWAP1 PUSH2 0x1F54 JUMP JUMPDEST SWAP9 PUSH1 0xC ADD SLOAD SWAP10 PUSH1 0x40 MLOAD SWAP13 DUP14 SWAP13 DUP14 SWAP3 PUSH2 0x1A0 DUP5 MSTORE PUSH2 0x1A0 DUP5 ADD PUSH2 0xE69 SWAP2 PUSH2 0x1FF4 JUMP JUMPDEST SWAP3 PUSH1 0x20 ADD MSTORE PUSH1 0x40 DUP14 ADD MSTORE DUP12 DUP2 SUB PUSH1 0x60 DUP14 ADD MSTORE PUSH2 0xE84 SWAP2 PUSH2 0x1FF4 JUMP JUMPDEST SWAP1 PUSH1 0x80 DUP12 ADD MSTORE DUP10 DUP2 SUB PUSH1 0xA0 DUP12 ADD MSTORE PUSH2 0xE9B SWAP2 PUSH2 0x1FF4 JUMP JUMPDEST DUP9 DUP2 SUB PUSH1 0xC0 DUP11 ADD MSTORE PUSH2 0xEAC SWAP2 PUSH2 0x1FF4 JUMP JUMPDEST SWAP4 PUSH1 0xE0 DUP9 ADD PUSH2 0xEBA SWAP2 PUSH2 0x2018 JUMP JUMPDEST PUSH2 0x100 DUP8 ADD MSTORE PUSH2 0x120 DUP7 ADD MSTORE PUSH2 0x140 DUP6 ADD MSTORE DUP4 DUP2 SUB PUSH2 0x160 DUP6 ADD MSTORE PUSH2 0xEDE SWAP2 PUSH2 0x1FF4 JUMP JUMPDEST SWAP1 PUSH2 0x180 DUP4 ADD MSTORE SUB SWAP1 RETURN JUMPDEST CALLVALUE PUSH2 0x48A JUMPI PUSH0 CALLDATASIZE PUSH1 0x3 NOT ADD SLT PUSH2 0x48A JUMPI PUSH1 0x20 PUSH1 0x40 MLOAD PUSH32 0xE2B7FB3B832174769106DAEBCFD6D1970523240DDA11281102DB9363B83B0DC4 DUP2 MSTORE RETURN JUMPDEST CALLVALUE PUSH2 0x48A JUMPI PUSH1 0x40 CALLDATASIZE PUSH1 0x3 NOT ADD SLT PUSH2 0x48A JUMPI PUSH2 0xF3C PUSH2 0x1E77 JUMP JUMPDEST PUSH1 0x4 CALLDATALOAD PUSH0 MSTORE PUSH0 MLOAD PUSH1 0x20 PUSH2 0x276E PUSH0 CODECOPY PUSH0 MLOAD SWAP1 PUSH0 MSTORE PUSH1 0x20 MSTORE PUSH1 0x40 PUSH0 KECCAK256 SWAP1 PUSH1 0x1 DUP1 PUSH1 0xA0 SHL SUB AND PUSH0 MSTORE PUSH1 0x20 MSTORE PUSH1 0x20 PUSH1 0xFF PUSH1 0x40 PUSH0 KECCAK256 SLOAD AND PUSH1 0x40 MLOAD SWAP1 ISZERO ISZERO DUP2 MSTORE RETURN JUMPDEST CALLVALUE PUSH2 0x48A JUMPI PUSH1 0x40 CALLDATASIZE PUSH1 0x3 NOT ADD SLT PUSH2 0x48A JUMPI PUSH1 0x24 CALLDATALOAD PUSH1 0x4 CALLDATALOAD PUSH2 0xF97 PUSH2 0x232A JUMP JUMPDEST PUSH2 0xF9F PUSH2 0x2661 JUMP JUMPDEST DUP1 PUSH0 MSTORE PUSH1 0x64 PUSH1 0x20 MSTORE PUSH1 0x40 PUSH0 KECCAK256 PUSH2 0xFBA PUSH1 0x8 DUP3 ADD SLOAD ISZERO ISZERO PUSH2 0x21A3 JUMP JUMPDEST PUSH1 0x7 DUP2 ADD SWAP1 PUSH1 0xFF DUP3 SLOAD AND PUSH1 0x4 DUP2 LT ISZERO PUSH2 0x3E5 JUMPI PUSH1 0x1 SUB PUSH2 0x101B JUMPI PUSH2 0xFF4 SWAP2 PUSH1 0x2 PUSH1 0xFF NOT DUP3 SLOAD AND OR SWAP1 SSTORE TIMESTAMP PUSH1 0xA DUP3 ADD SSTORE DUP4 PUSH1 0xC DUP3 ADD SSTORE PUSH2 0x2202 JUMP JUMPDEST SWAP1 PUSH32 0x5C2234FEFCB5493F9F62AEFC752F250EFA3EC972CED5207E1EE19BD47D705517 PUSH0 DUP1 LOG4 STOP JUMPDEST PUSH1 0x40 MLOAD PUSH3 0x461BCD PUSH1 0xE5 SHL DUP2 MSTORE PUSH1 0x20 PUSH1 0x4 DUP3 ADD MSTORE PUSH1 0x21 PUSH1 0x24 DUP3 ADD MSTORE PUSH32 0x4174746573746174696F6E52656769737472793A206E6F742076657269666965 PUSH1 0x44 DUP3 ADD MSTORE PUSH1 0x19 PUSH1 0xFA SHL PUSH1 0x64 DUP3 ADD MSTORE PUSH1 0x84 SWAP1 REVERT JUMPDEST CALLVALUE PUSH2 0x48A JUMPI PUSH0 CALLDATASIZE PUSH1 0x3 NOT ADD SLT PUSH2 0x48A JUMPI PUSH2 0x1082 PUSH2 0x22E1 JUMP JUMPDEST PUSH2 0x108A PUSH2 0x2661 JUMP JUMPDEST PUSH1 0x1 PUSH1 0xFF NOT PUSH0 SLOAD AND OR PUSH0 SSTORE PUSH32 0x62E78CEA01BEE320CD4E420270B5EA74000D11B0C9F74754EBDBFC544B05A258 PUSH1 0x20 PUSH1 0x40 MLOAD CALLER DUP2 MSTORE LOG1 STOP JUMPDEST CALLVALUE PUSH2 0x48A JUMPI PUSH0 CALLDATASIZE PUSH1 0x3 NOT ADD SLT PUSH2 0x48A JUMPI PUSH1 0x20 PUSH1 0x40 MLOAD PUSH0 MLOAD PUSH1 0x20 PUSH2 0x278E PUSH0 CODECOPY PUSH0 MLOAD SWAP1 PUSH0 MSTORE DUP2 MSTORE RETURN JUMPDEST CALLVALUE PUSH2 0x48A JUMPI PUSH1 0xC0 CALLDATASIZE PUSH1 0x3 NOT ADD SLT PUSH2 0x48A JUMPI PUSH1 0x4 CALLDATALOAD PUSH1 0x1 PUSH1 0x1 PUSH1 0x40 SHL SUB DUP2 GT PUSH2 0x48A JUMPI PUSH2 0x1118 SWAP1 CALLDATASIZE SWAP1 PUSH1 0x4 ADD PUSH2 0x1EEF JUMP JUMPDEST SWAP1 PUSH2 0x1121 PUSH2 0x1E77 JUMP JUMPDEST PUSH1 0x44 CALLDATALOAD PUSH1 0x1 PUSH1 0x1 PUSH1 0xA0 SHL SUB DUP2 AND SWAP4 SWAP1 SWAP3 SWAP1 DUP5 DUP5 SUB PUSH2 0x48A JUMPI PUSH1 0x64 CALLDATALOAD PUSH1 0x1 PUSH1 0x1 PUSH1 0x40 SHL SUB DUP2 GT PUSH2 0x48A JUMPI PUSH2 0x1158 SWAP1 CALLDATASIZE SWAP1 PUSH1 0x4 ADD PUSH2 0x1EEF JUMP JUMPDEST SWAP6 SWAP1 SWAP3 PUSH1 0x84 CALLDATALOAD SWAP1 PUSH1 0xA4 CALLDATALOAD PUSH1 0x1 PUSH1 0x1 PUSH1 0x40 SHL SUB DUP2 GT PUSH2 0x48A JUMPI PUSH2 0x117E SWAP1 CALLDATASIZE SWAP1 PUSH1 0x4 ADD PUSH2 0x1EEF JUMP JUMPDEST SWAP1 SWAP8 PUSH2 0x1188 PUSH2 0x232A JUMP JUMPDEST PUSH2 0x1190 PUSH2 0x2661 JUMP JUMPDEST DUP6 ISZERO PUSH2 0x17E8 JUMPI PUSH1 0x1 PUSH1 0x1 PUSH1 0xA0 SHL SUB DUP9 AND SWAP8 DUP9 ISZERO PUSH2 0x1794 JUMPI DUP6 ISZERO PUSH2 0x173C JUMPI DUP5 ISZERO PUSH2 0x16F8 JUMPI PUSH1 0x40 MLOAD DUP8 DUP6 DUP3 CALLDATACOPY PUSH1 0x20 DUP2 DUP10 DUP2 ADD PUSH1 0x65 DUP2 MSTORE SUB ADD SWAP1 KECCAK256 SLOAD PUSH2 0x16A1 JUMPI PUSH1 0x68 SLOAD PUSH0 NOT DUP2 EQ PUSH2 0x168D JUMPI PUSH1 0x68 PUSH1 0x20 DUP3 PUSH1 0x1 PUSH2 0x1236 SWAP5 ADD DUP4 SSTORE PUSH1 0x40 MLOAD SWAP5 DUP6 SWAP2 DUP4 DUP4 ADD SWAP8 DUP14 DUP12 DUP11 CALLDATACOPY DUP14 DUP5 ADD SWAP3 PUSH1 0x1 PUSH1 0x1 PUSH1 0x60 SHL SUB NOT SWAP1 PUSH1 0x60 SHL AND DUP6 DUP5 ADD MSTORE PUSH1 0x1 PUSH1 0x1 PUSH1 0x60 SHL SUB NOT SWAP1 PUSH1 0x60 SHL AND PUSH1 0x34 DUP4 ADD MSTORE TIMESTAMP PUSH1 0x48 DUP4 ADD MSTORE DUP5 DUP3 ADD MSTORE SUB ADD PUSH1 0x48 DUP2 ADD DUP5 MSTORE ADD DUP3 PUSH2 0x1DEF JUMP JUMPDEST MLOAD SWAP1 KECCAK256 SWAP8 DUP9 PUSH0 MSTORE PUSH1 0x64 PUSH1 0x20 MSTORE PUSH1 0x40 PUSH0 KECCAK256 SWAP2 PUSH1 0x1 PUSH1 0x1 PUSH1 0x40 SHL SUB DUP8 GT PUSH2 0x37D JUMPI PUSH2 0x125F DUP4 SLOAD PUSH2 0x1F1C JUMP JUMPDEST PUSH1 0x1F DUP2 GT PUSH2 0x1648 JUMPI JUMPDEST POP DUP7 PUSH0 PUSH1 0x1F DUP3 GT PUSH1 0x1 EQ PUSH2 0x15E4 JUMPI PUSH0 SWAP2 PUSH2 0x15D9 JUMPI JUMPDEST POP DUP8 PUSH1 0x1 SHL SWAP1 PUSH0 NOT DUP10 PUSH1 0x3 SHL SHR NOT AND OR DUP4 SSTORE JUMPDEST PUSH1 0x1 DUP4 ADD DUP10 PUSH1 0x1 PUSH1 0x1 PUSH1 0x60 SHL SUB PUSH1 0xA0 SHL DUP3 SLOAD AND OR SWAP1 SSTORE PUSH1 0x2 DUP4 ADD DUP7 PUSH1 0x1 PUSH1 0x1 PUSH1 0x60 SHL SUB PUSH1 0xA0 SHL DUP3 SLOAD AND OR SWAP1 SSTORE PUSH1 0x3 DUP4 ADD PUSH1 0x1 PUSH1 0x1 PUSH1 0x40 SHL SUB DUP13 GT PUSH2 0x37D JUMPI DUP12 PUSH2 0x12D9 DUP3 SLOAD PUSH2 0x1F1C JUMP JUMPDEST PUSH1 0x1F DUP2 GT PUSH2 0x1592 JUMPI JUMPDEST POP PUSH0 PUSH1 0x1F DUP3 GT PUSH1 0x1 EQ PUSH2 0x1529 JUMPI PUSH0 SWAP2 PUSH2 0x151E JUMPI JUMPDEST POP PUSH0 NOT PUSH1 0x3 DUP15 SWAP1 SHL SHR NOT AND PUSH1 0x1 DUP14 SWAP1 SHL OR SWAP1 SSTORE JUMPDEST DUP5 PUSH1 0x4 DUP5 ADD SSTORE PUSH1 0x5 DUP4 ADD SWAP2 PUSH1 0x1 PUSH1 0x1 PUSH1 0x40 SHL SUB DUP3 GT PUSH2 0x37D JUMPI PUSH2 0x132D DUP4 SLOAD PUSH2 0x1F1C JUMP JUMPDEST PUSH1 0x1F DUP2 GT PUSH2 0x14D9 JUMPI JUMPDEST POP SWAP2 PUSH1 0x20 SWAP12 SWAP6 SWAP4 SWAP2 DUP12 SWAP8 SWAP6 SWAP4 PUSH0 SWAP1 PUSH1 0x1F DUP4 GT PUSH1 0x1 EQ PUSH2 0x142D JUMPI SWAP2 DUP1 PUSH2 0x1411 SWAP7 SWAP5 SWAP3 PUSH32 0x91D3442984E66DD10BACD1FE207138AE27F95AAEE7D333B2A8A202991A4E98B0 SWAP12 SWAP13 SWAP7 SWAP5 PUSH0 SWAP3 PUSH2 0x1422 JUMPI JUMPDEST POP POP DUP2 PUSH1 0x1 SHL SWAP2 PUSH0 NOT SWAP1 PUSH1 0x3 SHL SHR NOT AND OR SWAP1 SSTORE JUMPDEST PUSH1 0x7 DUP2 ADD PUSH1 0xFF NOT DUP2 SLOAD AND SWAP1 SSTORE PUSH1 0x8 TIMESTAMP SWAP2 ADD SSTORE DUP8 PUSH1 0x40 MLOAD DUP4 DUP4 DUP3 CALLDATACOPY DUP14 DUP2 DUP6 DUP2 ADD PUSH1 0x65 DUP2 MSTORE SUB ADD SWAP1 KECCAK256 SSTORE DUP10 PUSH0 MSTORE PUSH1 0x66 DUP13 MSTORE PUSH2 0x13D3 DUP9 PUSH1 0x40 PUSH0 KECCAK256 PUSH2 0x214A JUMP JUMPDEST DUP5 PUSH0 MSTORE PUSH1 0x67 DUP13 MSTORE PUSH2 0x13E7 DUP9 PUSH1 0x40 PUSH0 KECCAK256 PUSH2 0x214A JUMP JUMPDEST DUP2 PUSH1 0x40 MLOAD SWAP3 DUP4 SWAP3 DUP4 CALLDATACOPY DUP2 ADD PUSH0 DUP2 MSTORE SUB SWAP1 KECCAK256 SWAP7 PUSH1 0x40 MLOAD SWAP5 DUP6 SWAP5 DUP6 MSTORE PUSH1 0x60 DUP13 DUP7 ADD MSTORE PUSH1 0x60 DUP6 ADD SWAP2 PUSH2 0x2183 JUMP JUMPDEST SWAP1 PUSH1 0x40 DUP4 ADD MSTORE SUB SWAP1 LOG4 PUSH1 0x40 MLOAD SWAP1 DUP2 MSTORE RETURN JUMPDEST ADD CALLDATALOAD SWAP1 POP PUSH0 DUP1 PUSH2 0x1383 JUMP JUMPDEST PUSH0 DUP5 DUP2 MSTORE DUP16 DUP2 KECCAK256 SWAP12 SWAP7 SWAP6 SWAP5 SWAP4 SWAP3 SWAP1 PUSH1 0x1F NOT DUP5 AND SWAP1 JUMPDEST DUP2 DUP2 LT PUSH2 0x14A7 JUMPI POP SWAP12 PUSH1 0x1 SWAP3 DUP5 SWAP3 PUSH2 0x1411 SWAP10 SWAP9 SWAP8 SWAP7 SWAP6 PUSH32 0x91D3442984E66DD10BACD1FE207138AE27F95AAEE7D333B2A8A202991A4E98B0 SWAP15 SWAP16 LT PUSH2 0x148E JUMPI JUMPDEST POP POP POP DUP2 SHL ADD SWAP1 SSTORE PUSH2 0x1397 JUMP JUMPDEST ADD CALLDATALOAD PUSH0 NOT PUSH1 0x3 DUP5 SWAP1 SHL PUSH1 0xF8 AND SHR NOT AND SWAP1 SSTORE PUSH0 DUP1 DUP1 PUSH2 0x1481 JUMP JUMPDEST SWAP3 SWAP4 SWAP6 SWAP8 SWAP10 SWAP12 POP SWAP1 SWAP4 SWAP6 SWAP8 SWAP10 SWAP12 PUSH1 0x20 PUSH1 0x1 DUP2 SWAP3 DUP8 DUP8 ADD CALLDATALOAD DUP2 SSTORE ADD SWAP6 ADD SWAP3 ADD SWAP1 DUP16 SWAP12 SWAP10 SWAP8 SWAP6 SWAP4 SWAP3 SWAP2 SWAP13 SWAP11 SWAP9 SWAP7 SWAP5 SWAP13 PUSH2 0x1442 JUMP JUMPDEST DUP4 PUSH0 MSTORE PUSH1 0x20 PUSH0 KECCAK256 PUSH1 0x1F DUP5 ADD PUSH1 0x5 SHR DUP2 ADD SWAP2 PUSH1 0x20 DUP6 LT PUSH2 0x1514 JUMPI JUMPDEST PUSH1 0x1F ADD PUSH1 0x5 SHR ADD SWAP1 JUMPDEST DUP2 DUP2 LT PUSH2 0x1509 JUMPI POP PUSH2 0x1336 JUMP JUMPDEST PUSH0 DUP2 SSTORE PUSH1 0x1 ADD PUSH2 0x14FC JUMP JUMPDEST SWAP1 SWAP2 POP DUP2 SWAP1 PUSH2 0x14F3 JUMP JUMPDEST SWAP1 POP DUP10 ADD CALLDATALOAD DUP14 PUSH2 0x12F6 JUMP JUMPDEST PUSH0 DUP4 DUP2 MSTORE PUSH1 0x20 DUP2 KECCAK256 SWAP3 POP DUP15 SWAP1 PUSH1 0x1F NOT DUP3 AND SWAP1 JUMPDEST DUP14 DUP3 DUP3 LT PUSH2 0x1574 JUMPI POP POP LT PUSH2 0x155B JUMPI JUMPDEST POP POP PUSH1 0x1 DUP13 DUP2 SHL ADD SWAP1 SSTORE PUSH2 0x130A JUMP JUMPDEST DUP11 ADD CALLDATALOAD PUSH0 NOT PUSH1 0x3 DUP16 SWAP1 SHL PUSH1 0xF8 AND SHR NOT AND SWAP1 SSTORE DUP13 DUP1 PUSH2 0x154C JUMP JUMPDEST PUSH1 0x20 SWAP3 SWAP4 POP DUP5 SWAP6 DUP4 SWAP3 SWAP6 PUSH1 0x1 SWAP3 ADD CALLDATALOAD DUP2 SSTORE ADD SWAP5 ADD SWAP3 ADD SWAP1 DUP16 SWAP2 PUSH2 0x153C JUMP JUMPDEST DUP3 PUSH0 MSTORE PUSH1 0x20 PUSH0 KECCAK256 SWAP1 PUSH1 0x20 PUSH1 0x1F DUP5 ADD PUSH1 0x5 SHR DUP4 ADD SWAP4 LT PUSH2 0x15CF JUMPI JUMPDEST PUSH1 0x1F ADD PUSH1 0x5 SHR ADD SWAP1 JUMPDEST DUP2 DUP2 LT PUSH2 0x15C4 JUMPI DUP14 SWAP2 POP PUSH2 0x12E2 JUMP JUMPDEST PUSH0 DUP2 SSTORE PUSH1 0x1 ADD PUSH2 0x15B5 JUMP JUMPDEST SWAP1 SWAP2 POP DUP2 SWAP1 PUSH2 0x15AC JUMP JUMPDEST SWAP1 POP DUP5 ADD CALLDATALOAD DUP13 PUSH2 0x127D JUMP JUMPDEST PUSH0 DUP6 DUP2 MSTORE PUSH1 0x20 DUP2 KECCAK256 SWAP3 POP DUP10 SWAP1 PUSH1 0x1F NOT DUP3 AND SWAP1 JUMPDEST DUP2 DUP2 LT PUSH2 0x162D JUMPI POP LT PUSH2 0x1614 JUMPI JUMPDEST POP POP PUSH1 0x1 DUP8 DUP2 SHL ADD DUP4 SSTORE PUSH2 0x1290 JUMP JUMPDEST DUP6 ADD CALLDATALOAD PUSH0 NOT PUSH1 0x3 DUP11 SWAP1 SHL PUSH1 0xF8 AND SHR NOT AND SWAP1 SSTORE DUP12 DUP1 PUSH2 0x1605 JUMP JUMPDEST DUP9 DUP5 ADD CALLDATALOAD DUP6 SSTORE PUSH1 0x1 SWAP1 SWAP5 ADD SWAP4 PUSH1 0x20 SWAP4 DUP5 ADD SWAP4 DUP13 SWAP4 POP ADD PUSH2 0x15F7 JUMP JUMPDEST DUP4 PUSH0 MSTORE PUSH1 0x20 PUSH0 KECCAK256 PUSH1 0x1F DUP10 ADD PUSH1 0x5 SHR DUP2 ADD SWAP2 PUSH1 0x20 DUP11 LT PUSH2 0x1683 JUMPI JUMPDEST PUSH1 0x1F ADD PUSH1 0x5 SHR ADD SWAP1 JUMPDEST DUP2 DUP2 LT PUSH2 0x1678 JUMPI POP PUSH2 0x1268 JUMP JUMPDEST PUSH0 DUP2 SSTORE PUSH1 0x1 ADD PUSH2 0x166B JUMP JUMPDEST SWAP1 SWAP2 POP DUP2 SWAP1 PUSH2 0x1662 JUMP JUMPDEST PUSH4 0x4E487B71 PUSH1 0xE0 SHL PUSH0 MSTORE PUSH1 0x11 PUSH1 0x4 MSTORE PUSH1 0x24 PUSH0 REVERT JUMPDEST PUSH1 0x40 MLOAD PUSH3 0x461BCD PUSH1 0xE5 SHL DUP2 MSTORE PUSH1 0x20 PUSH1 0x4 DUP3 ADD MSTORE PUSH1 0x29 PUSH1 0x24 DUP3 ADD MSTORE PUSH32 0x4174746573746174696F6E52656769737472793A206F7264657220616C726561 PUSH1 0x44 DUP3 ADD MSTORE PUSH9 0x647920657869737473 PUSH1 0xB8 SHL PUSH1 0x64 DUP3 ADD MSTORE PUSH1 0x84 SWAP1 REVERT JUMPDEST PUSH1 0x64 PUSH1 0x40 MLOAD PUSH3 0x461BCD PUSH1 0xE5 SHL DUP2 MSTORE PUSH1 0x20 PUSH1 0x4 DUP3 ADD MSTORE PUSH1 0x20 PUSH1 0x24 DUP3 ADD MSTORE PUSH32 0x4174746573746174696F6E52656769737472793A207A65726F20776569676874 PUSH1 0x44 DUP3 ADD MSTORE REVERT JUMPDEST PUSH1 0x40 MLOAD PUSH3 0x461BCD PUSH1 0xE5 SHL DUP2 MSTORE PUSH1 0x20 PUSH1 0x4 DUP3 ADD MSTORE PUSH1 0x2A PUSH1 0x24 DUP3 ADD MSTORE PUSH32 0x4174746573746174696F6E52656769737472793A207A65726F20666163696C69 PUSH1 0x44 DUP3 ADD MSTORE PUSH10 0x74792061646472657373 PUSH1 0xB0 SHL PUSH1 0x64 DUP3 ADD MSTORE PUSH1 0x84 SWAP1 REVERT JUMPDEST PUSH1 0x40 MLOAD PUSH3 0x461BCD PUSH1 0xE5 SHL DUP2 MSTORE PUSH1 0x20 PUSH1 0x4 DUP3 ADD MSTORE PUSH1 0x26 PUSH1 0x24 DUP3 ADD MSTORE PUSH32 0x4174746573746174696F6E52656769737472793A207A65726F20757365722061 PUSH1 0x44 DUP3 ADD MSTORE PUSH6 0x646472657373 PUSH1 0xD0 SHL PUSH1 0x64 DUP3 ADD MSTORE PUSH1 0x84 SWAP1 REVERT JUMPDEST PUSH1 0x40 MLOAD PUSH3 0x461BCD PUSH1 0xE5 SHL DUP2 MSTORE PUSH1 0x20 PUSH1 0x4 DUP3 ADD MSTORE PUSH1 0x22 PUSH1 0x24 DUP3 ADD MSTORE PUSH32 0x4174746573746174696F6E52656769737472793A20656D707479206F72646572 PUSH1 0x44 DUP3 ADD MSTORE PUSH2 0x1259 PUSH1 0xF2 SHL PUSH1 0x64 DUP3 ADD MSTORE PUSH1 0x84 SWAP1 REVERT JUMPDEST CALLVALUE PUSH2 0x48A JUMPI PUSH1 0x20 CALLDATASIZE PUSH1 0x3 NOT ADD SLT PUSH2 0x48A JUMPI PUSH1 0x1 PUSH1 0x1 PUSH1 0xA0 SHL SUB PUSH2 0x1859 PUSH2 0x1E61 JUMP JUMPDEST AND PUSH0 MSTORE PUSH1 0x67 PUSH1 0x20 MSTORE PUSH1 0x40 PUSH0 KECCAK256 PUSH1 0x40 MLOAD SWAP1 DUP2 PUSH1 0x20 DUP3 SLOAD SWAP2 DUP3 DUP2 MSTORE ADD SWAP2 PUSH0 MSTORE PUSH1 0x20 PUSH0 KECCAK256 SWAP1 PUSH0 JUMPDEST DUP2 DUP2 LT PUSH2 0x1894 JUMPI PUSH2 0x671 DUP6 PUSH2 0xD90 DUP2 DUP8 SUB DUP3 PUSH2 0x1DEF JUMP JUMPDEST DUP3 SLOAD DUP5 MSTORE PUSH1 0x20 SWAP1 SWAP4 ADD SWAP3 PUSH1 0x1 SWAP3 DUP4 ADD SWAP3 ADD PUSH2 0x187D JUMP JUMPDEST CALLVALUE PUSH2 0x48A JUMPI PUSH0 CALLDATASIZE PUSH1 0x3 NOT ADD SLT PUSH2 0x48A JUMPI PUSH1 0x20 PUSH1 0xFF PUSH0 SLOAD AND PUSH1 0x40 MLOAD SWAP1 ISZERO ISZERO DUP2 MSTORE RETURN JUMPDEST CALLVALUE PUSH2 0x48A JUMPI PUSH0 CALLDATASIZE PUSH1 0x3 NOT ADD SLT PUSH2 0x48A JUMPI PUSH32 0x0 PUSH1 0x1 PUSH1 0x1 PUSH1 0xA0 SHL SUB AND ADDRESS SUB PUSH2 0x1922 JUMPI PUSH1 0x20 PUSH1 0x40 MLOAD PUSH0 MLOAD PUSH1 0x20 PUSH2 0x274E PUSH0 CODECOPY PUSH0 MLOAD SWAP1 PUSH0 MSTORE DUP2 MSTORE RETURN JUMPDEST PUSH4 0x703E46DD PUSH1 0xE1 SHL PUSH0 MSTORE PUSH1 0x4 PUSH0 REVERT JUMPDEST PUSH1 0x40 CALLDATASIZE PUSH1 0x3 NOT ADD SLT PUSH2 0x48A JUMPI PUSH2 0x1945 PUSH2 0x1E61 JUMP JUMPDEST PUSH1 0x24 CALLDATALOAD PUSH1 0x1 PUSH1 0x1 PUSH1 0x40 SHL SUB DUP2 GT PUSH2 0x48A JUMPI CALLDATASIZE PUSH1 0x23 DUP3 ADD SLT ISZERO PUSH2 0x48A JUMPI PUSH2 0x1975 SWAP1 CALLDATASIZE SWAP1 PUSH1 0x24 DUP2 PUSH1 0x4 ADD CALLDATALOAD SWAP2 ADD PUSH2 0x1E2B JUMP JUMPDEST PUSH1 0x1 PUSH1 0x1 PUSH1 0xA0 SHL SUB PUSH32 0x0 AND ADDRESS DUP2 EQ SWAP1 DUP2 ISZERO PUSH2 0x1B14 JUMPI JUMPDEST POP PUSH2 0x1922 JUMPI PUSH2 0x19B7 PUSH2 0x22E1 JUMP JUMPDEST PUSH1 0x40 MLOAD PUSH4 0x52D1902D PUSH1 0xE0 SHL DUP2 MSTORE PUSH1 0x1 PUSH1 0x1 PUSH1 0xA0 SHL SUB DUP4 AND SWAP3 SWAP1 PUSH1 0x20 DUP2 PUSH1 0x4 DUP2 DUP8 GAS STATICCALL PUSH0 SWAP2 DUP2 PUSH2 0x1AE0 JUMPI JUMPDEST POP PUSH2 0x19F9 JUMPI DUP4 PUSH4 0x4C9C8CE3 PUSH1 0xE0 SHL PUSH0 MSTORE PUSH1 0x4 MSTORE PUSH1 0x24 PUSH0 REVERT JUMPDEST DUP1 PUSH0 MLOAD PUSH1 0x20 PUSH2 0x274E PUSH0 CODECOPY PUSH0 MLOAD SWAP1 PUSH0 MSTORE DUP6 SWAP3 SUB PUSH2 0x1ACE JUMPI POP DUP2 EXTCODESIZE ISZERO PUSH2 0x1ABC JUMPI PUSH0 MLOAD PUSH1 0x20 PUSH2 0x274E PUSH0 CODECOPY PUSH0 MLOAD SWAP1 PUSH0 MSTORE DUP1 SLOAD PUSH1 0x1 PUSH1 0x1 PUSH1 0xA0 SHL SUB NOT AND DUP3 OR SWAP1 SSTORE PUSH32 0xBC7CD75A20EE27FD9ADEBAB32041F755214DBC6BFFA90CC0225B39DA2E5C2D3B PUSH0 DUP1 LOG2 DUP2 MLOAD ISZERO PUSH2 0x1AA4 JUMPI PUSH0 DUP1 DUP4 PUSH1 0x20 PUSH2 0x535 SWAP6 MLOAD SWAP2 ADD DUP5 GAS DELEGATECALL RETURNDATASIZE ISZERO PUSH2 0x1A9C JUMPI RETURNDATASIZE SWAP2 PUSH2 0x1A80 DUP4 PUSH2 0x1E10 JUMP JUMPDEST SWAP3 PUSH2 0x1A8E PUSH1 0x40 MLOAD SWAP5 DUP6 PUSH2 0x1DEF JUMP JUMPDEST DUP4 MSTORE RETURNDATASIZE PUSH0 PUSH1 0x20 DUP6 ADD RETURNDATACOPY PUSH2 0x26CF JUMP JUMPDEST PUSH1 0x60 SWAP2 PUSH2 0x26CF JUMP JUMPDEST POP POP CALLVALUE PUSH2 0x1AAD JUMPI STOP JUMPDEST PUSH4 0xB398979F PUSH1 0xE0 SHL PUSH0 MSTORE PUSH1 0x4 PUSH0 REVERT JUMPDEST PUSH4 0x4C9C8CE3 PUSH1 0xE0 SHL PUSH0 MSTORE PUSH1 0x4 MSTORE PUSH1 0x24 PUSH0 REVERT JUMPDEST PUSH4 0x2A875269 PUSH1 0xE2 SHL PUSH0 MSTORE PUSH1 0x4 MSTORE PUSH1 0x24 PUSH0 REVERT JUMPDEST SWAP1 SWAP2 POP PUSH1 0x20 DUP2 RETURNDATASIZE PUSH1 0x20 GT PUSH2 0x1B0C JUMPI JUMPDEST DUP2 PUSH2 0x1AFC PUSH1 0x20 SWAP4 DUP4 PUSH2 0x1DEF JUMP JUMPDEST DUP2 ADD SUB SLT PUSH2 0x48A JUMPI MLOAD SWAP1 DUP6 PUSH2 0x19E1 JUMP JUMPDEST RETURNDATASIZE SWAP2 POP PUSH2 0x1AEF JUMP JUMPDEST PUSH0 MLOAD PUSH1 0x20 PUSH2 0x274E PUSH0 CODECOPY PUSH0 MLOAD SWAP1 PUSH0 MSTORE SLOAD PUSH1 0x1 PUSH1 0x1 PUSH1 0xA0 SHL SUB AND EQ ISZERO SWAP1 POP DUP4 PUSH2 0x19AA JUMP JUMPDEST CALLVALUE PUSH2 0x48A JUMPI PUSH0 CALLDATASIZE PUSH1 0x3 NOT ADD SLT PUSH2 0x48A JUMPI PUSH1 0x20 PUSH1 0x40 MLOAD PUSH32 0x13AFE234B87B250E27C8E9CD269D4EBFC7AF20D3FD4A3D9ADE8196EB1DE7D003 DUP2 MSTORE RETURN JUMPDEST CALLVALUE PUSH2 0x48A JUMPI PUSH0 CALLDATASIZE PUSH1 0x3 NOT ADD SLT PUSH2 0x48A JUMPI PUSH2 0x1B88 PUSH2 0x22E1 JUMP JUMPDEST PUSH0 SLOAD PUSH1 0xFF DUP2 AND ISZERO PUSH2 0x1BC5 JUMPI PUSH1 0xFF NOT AND PUSH0 SSTORE PUSH32 0x5DB9EE0A495BF2E6FF9C91A7834C1BA4FDD244A5E8AA4E537BD38AEAE4B073AA PUSH1 0x20 PUSH1 0x40 MLOAD CALLER DUP2 MSTORE LOG1 STOP JUMPDEST PUSH1 0x40 MLOAD PUSH3 0x461BCD PUSH1 0xE5 SHL DUP2 MSTORE PUSH1 0x20 PUSH1 0x4 DUP3 ADD MSTORE PUSH1 0x14 PUSH1 0x24 DUP3 ADD MSTORE PUSH20 0x14185D5CD8589B194E881B9BDD081C185D5CD959 PUSH1 0x62 SHL PUSH1 0x44 DUP3 ADD MSTORE PUSH1 0x64 SWAP1 REVERT JUMPDEST CALLVALUE PUSH2 0x48A JUMPI PUSH1 0x40 CALLDATASIZE PUSH1 0x3 NOT ADD SLT PUSH2 0x48A JUMPI PUSH2 0x1C1A PUSH2 0x1E77 JUMP JUMPDEST CALLER PUSH1 0x1 PUSH1 0x1 PUSH1 0xA0 SHL SUB DUP3 AND SUB PUSH2 0x1C36 JUMPI PUSH2 0x535 SWAP1 PUSH1 0x4 CALLDATALOAD PUSH2 0x25C5 JUMP JUMPDEST PUSH4 0x334BD919 PUSH1 0xE1 SHL PUSH0 MSTORE PUSH1 0x4 PUSH0 REVERT JUMPDEST CALLVALUE PUSH2 0x48A JUMPI PUSH1 0x40 CALLDATASIZE PUSH1 0x3 NOT ADD SLT PUSH2 0x48A JUMPI PUSH2 0x535 PUSH1 0x4 CALLDATALOAD PUSH2 0x1C64 PUSH2 0x1E77 JUMP JUMPDEST SWAP1 PUSH2 0x1C8A PUSH2 0x52B DUP3 PUSH0 MSTORE PUSH0 MLOAD PUSH1 0x20 PUSH2 0x276E PUSH0 CODECOPY PUSH0 MLOAD SWAP1 PUSH0 MSTORE PUSH1 0x20 MSTORE PUSH1 0x1 PUSH1 0x40 PUSH0 KECCAK256 ADD SLOAD SWAP1 JUMP JUMPDEST PUSH2 0x2521 JUMP JUMPDEST CALLVALUE PUSH2 0x48A JUMPI PUSH1 0x20 CALLDATASIZE PUSH1 0x3 NOT ADD SLT PUSH2 0x48A JUMPI PUSH1 0x20 PUSH2 0x1CC6 PUSH1 0x4 CALLDATALOAD PUSH0 MSTORE PUSH0 MLOAD PUSH1 0x20 PUSH2 0x276E PUSH0 CODECOPY PUSH0 MLOAD SWAP1 PUSH0 MSTORE PUSH1 0x20 MSTORE PUSH1 0x1 PUSH1 0x40 PUSH0 KECCAK256 ADD SLOAD SWAP1 JUMP JUMPDEST PUSH1 0x40 MLOAD SWAP1 DUP2 MSTORE RETURN JUMPDEST CALLVALUE PUSH2 0x48A JUMPI PUSH1 0x40 CALLDATASIZE PUSH1 0x3 NOT ADD SLT PUSH2 0x48A JUMPI PUSH2 0x1CE7 PUSH2 0x1E61 JUMP JUMPDEST PUSH1 0x1 PUSH1 0x1 PUSH1 0xA0 SHL SUB AND PUSH0 SWAP1 DUP2 MSTORE PUSH1 0x66 PUSH1 0x20 MSTORE PUSH1 0x40 SWAP1 KECCAK256 DUP1 SLOAD PUSH1 0x24 CALLDATALOAD SWAP2 SWAP1 DUP3 LT ISZERO PUSH2 0x48A JUMPI PUSH1 0x20 SWAP2 PUSH2 0x4D7 SWAP2 PUSH2 0x1E8D JUMP JUMPDEST CALLVALUE PUSH2 0x48A JUMPI PUSH1 0x20 CALLDATASIZE PUSH1 0x3 NOT ADD SLT PUSH2 0x48A JUMPI PUSH1 0x4 CALLDATALOAD PUSH4 0xFFFFFFFF PUSH1 0xE0 SHL DUP2 AND DUP1 SWAP2 SUB PUSH2 0x48A JUMPI PUSH1 0x20 SWAP1 PUSH4 0x7965DB0B PUSH1 0xE0 SHL DUP2 EQ SWAP1 DUP2 ISZERO PUSH2 0x1D5C JUMPI JUMPDEST POP PUSH1 0x40 MLOAD SWAP1 ISZERO ISZERO DUP2 MSTORE RETURN JUMPDEST PUSH4 0x1FFC9A7 PUSH1 0xE0 SHL EQ SWAP1 POP DUP3 PUSH2 0x1D51 JUMP JUMPDEST CALLVALUE PUSH2 0x48A JUMPI PUSH1 0x20 CALLDATASIZE PUSH1 0x3 NOT ADD SLT PUSH2 0x48A JUMPI PUSH1 0x4 CALLDATALOAD PUSH1 0x1 PUSH1 0x1 PUSH1 0x40 SHL SUB DUP2 GT PUSH2 0x48A JUMPI CALLDATASIZE PUSH1 0x23 DUP3 ADD SLT ISZERO PUSH2 0x48A JUMPI PUSH1 0x20 DUP1 PUSH2 0x1DB2 DUP2 SWAP4 CALLDATASIZE SWAP1 PUSH1 0x24 DUP2 PUSH1 0x4 ADD CALLDATALOAD SWAP2 ADD PUSH2 0x1E2B JUMP JUMPDEST PUSH1 0x40 MLOAD SWAP3 DUP2 DUP5 SWAP3 MLOAD SWAP2 DUP3 SWAP2 ADD DUP4 MCOPY DUP2 ADD PUSH1 0x65 DUP2 MSTORE SUB ADD SWAP1 KECCAK256 SLOAD PUSH1 0x40 MLOAD SWAP1 DUP2 MSTORE RETURN JUMPDEST PUSH2 0x1A0 DUP2 ADD SWAP1 DUP2 LT PUSH1 0x1 PUSH1 0x1 PUSH1 0x40 SHL SUB DUP3 GT OR PUSH2 0x37D JUMPI PUSH1 0x40 MSTORE JUMP JUMPDEST SWAP1 PUSH1 0x1F DUP1 NOT SWAP2 ADD AND DUP2 ADD SWAP1 DUP2 LT PUSH1 0x1 PUSH1 0x1 PUSH1 0x40 SHL SUB DUP3 GT OR PUSH2 0x37D JUMPI PUSH1 0x40 MSTORE JUMP JUMPDEST PUSH1 0x1 PUSH1 0x1 PUSH1 0x40 SHL SUB DUP2 GT PUSH2 0x37D JUMPI PUSH1 0x1F ADD PUSH1 0x1F NOT AND PUSH1 0x20 ADD SWAP1 JUMP JUMPDEST SWAP3 SWAP2 SWAP3 PUSH2 0x1E37 DUP3 PUSH2 0x1E10 JUMP JUMPDEST SWAP2 PUSH2 0x1E45 PUSH1 0x40 MLOAD SWAP4 DUP5 PUSH2 0x1DEF JUMP JUMPDEST DUP3 SWAP5 DUP2 DUP5 MSTORE DUP2 DUP4 ADD GT PUSH2 0x48A JUMPI DUP3 DUP2 PUSH1 0x20 SWAP4 DUP5 PUSH0 SWAP7 ADD CALLDATACOPY ADD ADD MSTORE JUMP JUMPDEST PUSH1 0x4 CALLDATALOAD SWAP1 PUSH1 0x1 PUSH1 0x1 PUSH1 0xA0 SHL SUB DUP3 AND DUP3 SUB PUSH2 0x48A JUMPI JUMP JUMPDEST PUSH1 0x24 CALLDATALOAD SWAP1 PUSH1 0x1 PUSH1 0x1 PUSH1 0xA0 SHL SUB DUP3 AND DUP3 SUB PUSH2 0x48A JUMPI JUMP JUMPDEST DUP1 SLOAD DUP3 LT ISZERO PUSH2 0x1EA2 JUMPI PUSH0 MSTORE PUSH1 0x20 PUSH0 KECCAK256 ADD SWAP1 PUSH0 SWAP1 JUMP JUMPDEST PUSH4 0x4E487B71 PUSH1 0xE0 SHL PUSH0 MSTORE PUSH1 0x32 PUSH1 0x4 MSTORE PUSH1 0x24 PUSH0 REVERT JUMPDEST PUSH1 0x20 PUSH1 0x40 DUP2 DUP4 ADD SWAP3 DUP3 DUP2 MSTORE DUP5 MLOAD DUP1 SWAP5 MSTORE ADD SWAP3 ADD SWAP1 PUSH0 JUMPDEST DUP2 DUP2 LT PUSH2 0x1ED9 JUMPI POP POP POP SWAP1 JUMP JUMPDEST DUP3 MLOAD DUP5 MSTORE PUSH1 0x20 SWAP4 DUP5 ADD SWAP4 SWAP1 SWAP3 ADD SWAP2 PUSH1 0x1 ADD PUSH2 0x1ECC JUMP JUMPDEST SWAP2 DUP2 PUSH1 0x1F DUP5 ADD SLT ISZERO PUSH2 0x48A JUMPI DUP3 CALLDATALOAD SWAP2 PUSH1 0x1 PUSH1 0x1 PUSH1 0x40 SHL SUB DUP4 GT PUSH2 0x48A JUMPI PUSH1 0x20 DUP4 DUP2 DUP7 ADD SWAP6 ADD ADD GT PUSH2 0x48A JUMPI JUMP JUMPDEST SWAP1 PUSH1 0x1 DUP3 DUP2 SHR SWAP3 AND DUP1 ISZERO PUSH2 0x1F4A JUMPI JUMPDEST PUSH1 0x20 DUP4 LT EQ PUSH2 0x1F36 JUMPI JUMP JUMPDEST PUSH4 0x4E487B71 PUSH1 0xE0 SHL PUSH0 MSTORE PUSH1 0x22 PUSH1 0x4 MSTORE PUSH1 0x24 PUSH0 REVERT JUMPDEST SWAP2 PUSH1 0x7F AND SWAP2 PUSH2 0x1F2B JUMP JUMPDEST SWAP1 PUSH1 0x40 MLOAD SWAP2 DUP3 PUSH0 DUP3 SLOAD SWAP3 PUSH2 0x1F67 DUP5 PUSH2 0x1F1C JUMP JUMPDEST DUP1 DUP5 MSTORE SWAP4 PUSH1 0x1 DUP2 AND SWAP1 DUP2 ISZERO PUSH2 0x1FD2 JUMPI POP PUSH1 0x1 EQ PUSH2 0x1F8E JUMPI JUMPDEST POP PUSH2 0x1F8C SWAP3 POP SUB DUP4 PUSH2 0x1DEF JUMP JUMPDEST JUMP JUMPDEST SWAP1 POP PUSH0 SWAP3 SWAP2 SWAP3 MSTORE PUSH1 0x20 PUSH0 KECCAK256 SWAP1 PUSH0 SWAP2 JUMPDEST DUP2 DUP4 LT PUSH2 0x1FB6 JUMPI POP POP SWAP1 PUSH1 0x20 PUSH2 0x1F8C SWAP3 DUP3 ADD ADD PUSH0 PUSH2 0x1F7F JUMP JUMPDEST PUSH1 0x20 SWAP2 SWAP4 POP DUP1 PUSH1 0x1 SWAP2 SLOAD DUP4 DUP6 DUP10 ADD ADD MSTORE ADD SWAP2 ADD SWAP1 SWAP2 DUP5 SWAP3 PUSH2 0x1F9D JUMP JUMPDEST SWAP1 POP PUSH1 0x20 SWAP3 POP PUSH2 0x1F8C SWAP5 SWAP2 POP PUSH1 0xFF NOT AND DUP3 DUP5 ADD MSTORE ISZERO ISZERO PUSH1 0x5 SHL DUP3 ADD ADD PUSH0 PUSH2 0x1F7F JUMP JUMPDEST DUP1 MLOAD DUP1 DUP4 MSTORE PUSH1 0x20 SWAP3 SWAP2 DUP2 SWAP1 DUP5 ADD DUP5 DUP5 ADD MCOPY PUSH0 DUP3 DUP3 ADD DUP5 ADD MSTORE PUSH1 0x1F ADD PUSH1 0x1F NOT AND ADD ADD SWAP1 JUMP JUMPDEST SWAP1 PUSH1 0x4 DUP3 LT ISZERO PUSH2 0x3E5 JUMPI MSTORE JUMP JUMPDEST PUSH1 0x20 DUP2 MSTORE PUSH2 0x1A0 PUSH2 0x180 PUSH2 0x210E PUSH2 0x20C1 PUSH2 0x20AB PUSH2 0x208B PUSH2 0x2051 DUP9 MLOAD DUP8 PUSH1 0x20 DUP11 ADD MSTORE PUSH2 0x1C0 DUP10 ADD SWAP1 PUSH2 0x1FF4 JUMP JUMPDEST PUSH1 0x20 DUP10 ADD MLOAD PUSH1 0x1 PUSH1 0x1 PUSH1 0xA0 SHL SUB SWAP1 DUP2 AND PUSH1 0x40 DUP11 DUP2 ADD SWAP2 SWAP1 SWAP2 MSTORE DUP11 ADD MLOAD AND PUSH1 0x60 DUP1 DUP11 ADD SWAP2 SWAP1 SWAP2 MSTORE DUP10 ADD MLOAD DUP9 DUP3 SUB PUSH1 0x1F NOT ADD PUSH1 0x80 DUP11 ADD MSTORE PUSH2 0x1FF4 JUMP JUMPDEST PUSH1 0x80 DUP9 ADD MLOAD PUSH1 0xA0 DUP9 ADD MSTORE PUSH1 0xA0 DUP9 ADD MLOAD PUSH1 0x1F NOT DUP9 DUP4 SUB ADD PUSH1 0xC0 DUP10 ADD MSTORE PUSH2 0x1FF4 JUMP JUMPDEST PUSH1 0xC0 DUP8 ADD MLOAD DUP7 DUP3 SUB PUSH1 0x1F NOT ADD PUSH1 0xE0 DUP9 ADD MSTORE PUSH2 0x1FF4 JUMP JUMPDEST PUSH2 0x20D4 PUSH1 0xE0 DUP8 ADD MLOAD PUSH2 0x100 DUP8 ADD SWAP1 PUSH2 0x2018 JUMP JUMPDEST PUSH2 0x100 DUP7 ADD MLOAD PUSH2 0x120 DUP7 ADD MSTORE PUSH2 0x120 DUP7 ADD MLOAD PUSH2 0x140 DUP7 ADD MSTORE PUSH2 0x140 DUP7 ADD MLOAD PUSH2 0x160 DUP7 ADD MSTORE PUSH2 0x160 DUP7 ADD MLOAD PUSH1 0x1F NOT DUP7 DUP4 SUB ADD DUP5 DUP8 ADD MSTORE PUSH2 0x1FF4 JUMP JUMPDEST SWAP4 ADD MLOAD SWAP2 ADD MSTORE SWAP1 JUMP JUMPDEST SWAP1 PUSH1 0x40 PUSH1 0x3 NOT DUP4 ADD SLT PUSH2 0x48A JUMPI PUSH1 0x4 CALLDATALOAD SWAP2 PUSH1 0x24 CALLDATALOAD SWAP1 PUSH1 0x1 PUSH1 0x1 PUSH1 0x40 SHL SUB DUP3 GT PUSH2 0x48A JUMPI PUSH2 0x2146 SWAP2 PUSH1 0x4 ADD PUSH2 0x1EEF JUMP JUMPDEST SWAP1 SWAP2 JUMP JUMPDEST DUP1 SLOAD PUSH9 0x10000000000000000 DUP2 LT ISZERO PUSH2 0x37D JUMPI PUSH2 0x216C SWAP2 PUSH1 0x1 DUP3 ADD DUP2 SSTORE PUSH2 0x1E8D JUMP JUMPDEST DUP2 SWAP3 SWAP2 SLOAD SWAP1 PUSH1 0x3 SHL SWAP2 DUP3 SHL SWAP2 PUSH0 NOT SWAP1 SHL NOT AND OR SWAP1 SSTORE JUMP JUMPDEST SWAP1 DUP1 PUSH1 0x20 SWAP4 SWAP3 DUP2 DUP5 MSTORE DUP5 DUP5 ADD CALLDATACOPY PUSH0 DUP3 DUP3 ADD DUP5 ADD MSTORE PUSH1 0x1F ADD PUSH1 0x1F NOT AND ADD ADD SWAP1 JUMP JUMPDEST ISZERO PUSH2 0x21AA JUMPI JUMP JUMPDEST PUSH1 0x40 MLOAD PUSH3 0x461BCD PUSH1 0xE5 SHL DUP2 MSTORE PUSH1 0x20 PUSH1 0x4 DUP3 ADD MSTORE PUSH1 0x2A PUSH1 0x24 DUP3 ADD MSTORE PUSH32 0x4174746573746174696F6E52656769737472793A206174746573746174696F6E PUSH1 0x44 DUP3 ADD MSTORE PUSH10 0x81B9BDD08199BDD5B99 PUSH1 0xB2 SHL PUSH1 0x64 DUP3 ADD MSTORE PUSH1 0x84 SWAP1 REVERT JUMPDEST PUSH1 0x40 MLOAD DUP1 SWAP2 PUSH0 SWAP1 DUP1 SLOAD SWAP1 PUSH2 0x2215 DUP3 PUSH2 0x1F1C JUMP JUMPDEST SWAP2 PUSH1 0x1 DUP2 AND SWAP1 DUP2 ISZERO PUSH2 0x2267 JUMPI POP PUSH1 0x1 EQ PUSH2 0x2232 JUMPI JUMPDEST POP POP SUB SWAP1 KECCAK256 SWAP1 JUMP JUMPDEST SWAP1 SWAP2 POP PUSH0 MSTORE PUSH1 0x20 PUSH0 KECCAK256 PUSH0 SWAP1 JUMPDEST DUP3 DUP3 LT PUSH2 0x2250 JUMPI POP POP DUP2 ADD PUSH0 DUP1 PUSH2 0x222A JUMP JUMPDEST DUP1 SLOAD DUP3 DUP7 ADD MSTORE DUP5 SWAP4 POP PUSH1 0x20 SWAP1 SWAP2 ADD SWAP1 PUSH1 0x1 ADD PUSH2 0x223E JUMP JUMPDEST PUSH1 0xFF NOT AND DUP6 MSTORE POP POP DUP1 ISZERO ISZERO MUL DUP3 ADD SWAP1 POP PUSH0 DUP1 PUSH2 0x222A JUMP JUMPDEST PUSH1 0x40 MLOAD SWAP1 PUSH2 0x228B DUP3 PUSH2 0x1DD3 JUMP JUMPDEST PUSH0 PUSH2 0x180 DUP4 PUSH1 0x60 DUP2 MSTORE DUP3 PUSH1 0x20 DUP3 ADD MSTORE DUP3 PUSH1 0x40 DUP3 ADD MSTORE PUSH1 0x60 DUP1 DUP3 ADD MSTORE DUP3 PUSH1 0x80 DUP3 ADD MSTORE PUSH1 0x60 PUSH1 0xA0 DUP3 ADD MSTORE PUSH1 0x60 PUSH1 0xC0 DUP3 ADD MSTORE DUP3 PUSH1 0xE0 DUP3 ADD MSTORE DUP3 PUSH2 0x100 DUP3 ADD MSTORE DUP3 PUSH2 0x120 DUP3 ADD MSTORE DUP3 PUSH2 0x140 DUP3 ADD MSTORE PUSH1 0x60 PUSH2 0x160 DUP3 ADD MSTORE ADD MSTORE JUMP JUMPDEST CALLER PUSH0 SWAP1 DUP2 MSTORE PUSH0 MLOAD PUSH1 0x20 PUSH2 0x272E PUSH0 CODECOPY PUSH0 MLOAD SWAP1 PUSH0 MSTORE PUSH1 0x20 MSTORE PUSH1 0x40 SWAP1 KECCAK256 SLOAD PUSH1 0xFF AND ISZERO PUSH2 0x2306 JUMPI JUMP JUMPDEST PUSH4 0xE2517D3F PUSH1 0xE0 SHL PUSH0 MSTORE CALLER PUSH1 0x4 MSTORE PUSH0 MLOAD PUSH1 0x20 PUSH2 0x278E PUSH0 CODECOPY PUSH0 MLOAD SWAP1 PUSH0 MSTORE PUSH1 0x24 MSTORE PUSH1 0x44 PUSH0 REVERT JUMPDEST CALLER PUSH0 SWAP1 DUP2 MSTORE PUSH32 0xA9ED30483CA8E7E18EDB58C7D68A44612FE881C88CEBAD0B52B41698E9844DE2 PUSH1 0x20 MSTORE PUSH1 0x40 SWAP1 KECCAK256 SLOAD PUSH1 0xFF AND ISZERO PUSH2 0x2362 JUMPI JUMP JUMPDEST PUSH4 0xE2517D3F PUSH1 0xE0 SHL PUSH0 MSTORE CALLER PUSH1 0x4 MSTORE PUSH32 0xE2B7FB3B832174769106DAEBCFD6D1970523240DDA11281102DB9363B83B0DC4 PUSH1 0x24 MSTORE PUSH1 0x44 PUSH0 REVERT JUMPDEST PUSH0 DUP2 DUP2 MSTORE PUSH0 MLOAD PUSH1 0x20 PUSH2 0x276E PUSH0 CODECOPY PUSH0 MLOAD SWAP1 PUSH0 MSTORE PUSH1 0x20 SWAP1 DUP2 MSTORE PUSH1 0x40 DUP1 DUP4 KECCAK256 CALLER DUP5 MSTORE SWAP1 SWAP2 MSTORE SWAP1 KECCAK256 SLOAD PUSH1 0xFF AND ISZERO PUSH2 0x23C9 JUMPI POP JUMP JUMPDEST PUSH4 0xE2517D3F PUSH1 0xE0 SHL PUSH0 MSTORE CALLER PUSH1 0x4 MSTORE PUSH1 0x24 MSTORE PUSH1 0x44 PUSH0 REVERT JUMPDEST PUSH1 0x1 PUSH1 0x1 PUSH1 0xA0 SHL SUB DUP2 AND PUSH0 SWAP1 DUP2 MSTORE PUSH32 0xB7DB2DD08FCB62D0C9E08C51941CAE53C267786A0B75803FB7960902FC8EF97D PUSH1 0x20 MSTORE PUSH1 0x40 SWAP1 KECCAK256 SLOAD PUSH1 0xFF AND PUSH2 0x2489 JUMPI PUSH1 0x1 PUSH1 0x1 PUSH1 0xA0 SHL SUB AND PUSH0 DUP2 DUP2 MSTORE PUSH32 0xB7DB2DD08FCB62D0C9E08C51941CAE53C267786A0B75803FB7960902FC8EF97D PUSH1 0x20 MSTORE PUSH1 0x40 DUP2 KECCAK256 DUP1 SLOAD PUSH1 0xFF NOT AND PUSH1 0x1 OR SWAP1 SSTORE CALLER SWAP2 SWAP1 PUSH32 0x2F8788117E7EFF1D82E926EC794901D17C78024A50270940304540A733656F0D DUP2 DUP1 LOG4 PUSH1 0x1 SWAP1 JUMP JUMPDEST POP PUSH0 SWAP1 JUMP JUMPDEST PUSH1 0x1 PUSH1 0x1 PUSH1 0xA0 SHL SUB DUP2 AND PUSH0 SWAP1 DUP2 MSTORE PUSH0 MLOAD PUSH1 0x20 PUSH2 0x272E PUSH0 CODECOPY PUSH0 MLOAD SWAP1 PUSH0 MSTORE PUSH1 0x20 MSTORE PUSH1 0x40 SWAP1 KECCAK256 SLOAD PUSH1 0xFF AND PUSH2 0x2489 JUMPI PUSH1 0x1 PUSH1 0x1 PUSH1 0xA0 SHL SUB AND PUSH0 DUP2 DUP2 MSTORE PUSH0 MLOAD PUSH1 0x20 PUSH2 0x272E PUSH0 CODECOPY PUSH0 MLOAD SWAP1 PUSH0 MSTORE PUSH1 0x20 MSTORE PUSH1 0x40 DUP2 KECCAK256 DUP1 SLOAD PUSH1 0xFF NOT AND PUSH1 0x1 OR SWAP1 SSTORE CALLER SWAP2 SWAP1 PUSH0 MLOAD PUSH1 0x20 PUSH2 0x278E PUSH0 CODECOPY PUSH0 MLOAD SWAP1 PUSH0 MSTORE SWAP1 PUSH32 0x2F8788117E7EFF1D82E926EC794901D17C78024A50270940304540A733656F0D SWAP1 DUP1 LOG4 PUSH1 0x1 SWAP1 JUMP JUMPDEST PUSH0 DUP2 DUP2 MSTORE PUSH0 MLOAD PUSH1 0x20 PUSH2 0x276E PUSH0 CODECOPY PUSH0 MLOAD SWAP1 PUSH0 MSTORE PUSH1 0x20 SWAP1 DUP2 MSTORE PUSH1 0x40 DUP1 DUP4 KECCAK256 PUSH1 0x1 PUSH1 0x1 PUSH1 0xA0 SHL SUB DUP7 AND DUP5 MSTORE SWAP1 SWAP2 MSTORE SWAP1 KECCAK256 SLOAD PUSH1 0xFF AND PUSH2 0x25BF JUMPI PUSH0 DUP2 DUP2 MSTORE PUSH0 MLOAD PUSH1 0x20 PUSH2 0x276E PUSH0 CODECOPY PUSH0 MLOAD SWAP1 PUSH0 MSTORE PUSH1 0x20 SWAP1 DUP2 MSTORE PUSH1 0x40 DUP1 DUP4 KECCAK256 PUSH1 0x1 PUSH1 0x1 PUSH1 0xA0 SHL SUB SWAP6 SWAP1 SWAP6 AND DUP1 DUP5 MSTORE SWAP5 SWAP1 SWAP2 MSTORE DUP2 KECCAK256 DUP1 SLOAD PUSH1 0xFF NOT AND PUSH1 0x1 OR SWAP1 SSTORE CALLER SWAP3 SWAP2 SWAP1 PUSH32 0x2F8788117E7EFF1D82E926EC794901D17C78024A50270940304540A733656F0D SWAP1 DUP1 LOG4 PUSH1 0x1 SWAP1 JUMP JUMPDEST POP POP PUSH0 SWAP1 JUMP JUMPDEST PUSH0 DUP2 DUP2 MSTORE PUSH0 MLOAD PUSH1 0x20 PUSH2 0x276E PUSH0 CODECOPY PUSH0 MLOAD SWAP1 PUSH0 MSTORE PUSH1 0x20 SWAP1 DUP2 MSTORE PUSH1 0x40 DUP1 DUP4 KECCAK256 PUSH1 0x1 PUSH1 0x1 PUSH1 0xA0 SHL SUB DUP7 AND DUP5 MSTORE SWAP1 SWAP2 MSTORE SWAP1 KECCAK256 SLOAD PUSH1 0xFF AND ISZERO PUSH2 0x25BF JUMPI PUSH0 DUP2 DUP2 MSTORE PUSH0 MLOAD PUSH1 0x20 PUSH2 0x276E PUSH0 CODECOPY PUSH0 MLOAD SWAP1 PUSH0 MSTORE PUSH1 0x20 SWAP1 DUP2 MSTORE PUSH1 0x40 DUP1 DUP4 KECCAK256 PUSH1 0x1 PUSH1 0x1 PUSH1 0xA0 SHL SUB SWAP6 SWAP1 SWAP6 AND DUP1 DUP5 MSTORE SWAP5 SWAP1 SWAP2 MSTORE DUP2 KECCAK256 DUP1 SLOAD PUSH1 0xFF NOT AND SWAP1 SSTORE CALLER SWAP3 SWAP2 SWAP1 PUSH32 0xF6391F5C32D9C69D2A47EA670B442974B53935D1EDC7FD64EB21E047A839171B SWAP1 DUP1 LOG4 PUSH1 0x1 SWAP1 JUMP JUMPDEST PUSH1 0xFF PUSH0 SLOAD AND PUSH2 0x266C JUMPI JUMP JUMPDEST PUSH1 0x40 MLOAD PUSH3 0x461BCD PUSH1 0xE5 SHL DUP2 MSTORE PUSH1 0x20 PUSH1 0x4 DUP3 ADD MSTORE PUSH1 0x10 PUSH1 0x24 DUP3 ADD MSTORE PUSH16 0x14185D5CD8589B194E881C185D5CD959 PUSH1 0x82 SHL PUSH1 0x44 DUP3 ADD MSTORE PUSH1 0x64 SWAP1 REVERT JUMPDEST PUSH1 0xFF PUSH0 MLOAD PUSH1 0x20 PUSH2 0x27AE PUSH0 CODECOPY PUSH0 MLOAD SWAP1 PUSH0 MSTORE SLOAD PUSH1 0x40 SHR AND ISZERO PUSH2 0x26C0 JUMPI JUMP JUMPDEST PUSH4 0x1AFCD79F PUSH1 0xE3 SHL PUSH0 MSTORE PUSH1 0x4 PUSH0 REVERT JUMPDEST SWAP1 PUSH2 0x26F3 JUMPI POP DUP1 MLOAD ISZERO PUSH2 0x26E4 JUMPI PUSH1 0x20 DUP2 MLOAD SWAP2 ADD REVERT JUMPDEST PUSH4 0xD6BDA275 PUSH1 0xE0 SHL PUSH0 MSTORE PUSH1 0x4 PUSH0 REVERT JUMPDEST DUP2 MLOAD ISZERO DUP1 PUSH2 0x2724 JUMPI JUMPDEST PUSH2 0x2704 JUMPI POP SWAP1 JUMP JUMPDEST PUSH4 0x9996B315 PUSH1 0xE0 SHL PUSH0 SWAP1 DUP2 MSTORE PUSH1 0x1 PUSH1 0x1 PUSH1 0xA0 SHL SUB SWAP2 SWAP1 SWAP2 AND PUSH1 0x4 MSTORE PUSH1 0x24 SWAP1 REVERT JUMPDEST POP DUP1 EXTCODESIZE ISZERO PUSH2 0x26FC JUMP INVALID 0xB1 PUSH15 0x88C42FD4E48DF2DD6A2EABD6BC9AEC PUSH6 0x4EC170056B47 ADDMOD NOT EXTCALL DUP10 0x2C 0xC6 NUMBER SHR CALLDATASIZE ADDMOD SWAP5 LOG1 EXTCODESIZE LOG1 LOG3 0x21 MOD PUSH8 0xC828492DB98DCA3E KECCAK256 PUSH23 0xCC3735A920A3CA505D382BBC02DD7BC7DEC4DCEEDDA775 JUMPF 0x8DD5 COINBASE RJUMP 0x8A11 PUSH13 0x6C53815C0BD028192F7B626800 LOG4 SWAP9 SMOD KECCAK256 TLOAD RETF 0xD3 SSTORE MULMOD 0x2E CREATE2 0xA8 LOG1 DUP16 JUMP 0xE8 SWAP2 EXTCODECOPY DELEGATECALL LOG2 ADD EXTSTATICCALL 0xE2 DUP8 DUP3 JUMPDEST MULMOD JUMP SWAP4 0xC2 OR PUSH22 0xF0C57E16840DF040F15088DC2F81FE391C3923BEC73E 0x23 0xA9 PUSH7 0x2EFC9C229C6A00 LOG2 PUSH5 0x6970667358 0x22 SLT KECCAK256 0x24 0x23 PREVRANDAO PUSH25 0x958CF6D8E256A99EF08303EF0AE93575C418ED28C9F701E5EF 0xCA PUSH30 0xC164736F6C634300081E0033F0C57E16840DF040F15088DC2F81FE391C39 0x23 0xBE 0xC7 RETURNDATACOPY 0x23 0xA9 PUSH7 0x2EFC9C229C6A00 "
		},
		"gasEstimates": {
			"creation": {
				"codeDepositCost": "2048600",
				"executionCost": "infinite",
				"totalCost": "infinite"
			},
			"external": {
				"ADMIN_ROLE()": "460",
				"DEFAULT_ADMIN_ROLE()": "584",
				"FACILITY_ROLE()": "299",
				"RELAYER_ROLE()": "519",
				"UPGRADE_INTERFACE_VERSION()": "932",
				"attestations(bytes32)": "infinite",
				"createAttestation(string,address,address,string,uint256,string)": "infinite",
				"facilityAttestations(address,uint256)": "7363",
				"getAttestation(bytes32)": "infinite",
				"getAttestationByOrder(string)": "infinite",
				"getFacilityAttestations(address)": "infinite",
				"getRoleAdmin(bytes32)": "infinite",
				"getUserAttestations(address)": "infinite",
				"grantRole(bytes32,address)": "33473",
				"hasRole(bytes32,address)": "infinite",
				"initialize(address)": "infinite",
				"markProcessed(bytes32,bytes32)": "infinite",
				"orderToAttestation(string)": "infinite",
				"pause()": "infinite",
				"paused()": "2479",
				"proxiableUUID()": "infinite",
				"rejectAttestation(bytes32,string)": "infinite",
				"renounceRole(bytes32,address)": "29001",
				"revokeRole(bytes32,address)": "33954",
				"supportsInterface(bytes4)": "292",
				"unpause()": "infinite",
				"upgradeToAndCall(address,bytes)": "infinite",
				"userAttestations(address,uint256)": "6813",
				"verifyAttestation(bytes32,string)": "infinite"
			},
			"internal": {
				"_authorizeUpgrade(address)": "infinite"
			}
		},
		"methodIdentifiers": {
			"ADMIN_ROLE()": "75b238fc",
			"DEFAULT_ADMIN_ROLE()": "a217fddf",
			"FACILITY_ROLE()": "4498b868",
			"RELAYER_ROLE()": "926d7d7f",
			"UPGRADE_INTERFACE_VERSION()": "ad3cb1cc",
			"attestations(bytes32)": "940992a3",
			"createAttestation(string,address,address,string,uint256,string)": "6fb2d341",
			"facilityAttestations(address,uint256)": "ddb040e9",
			"getAttestation(bytes32)": "a3112a64",
			"getAttestationByOrder(string)": "c65b3344",
			"getFacilityAttestations(address)": "5cb009aa",
			"getRoleAdmin(bytes32)": "248a9ca3",
			"getUserAttestations(address)": "9658e1ef",
			"grantRole(bytes32,address)": "2f2ff15d",
			"hasRole(bytes32,address)": "91d14854",
			"initialize(address)": "c4d66de8",
			"markProcessed(bytes32,bytes32)": "8f91b49a",
			"orderToAttestation(string)": "01060a4f",
			"pause()": "8456cb59",
			"paused()": "5c975abb",
			"proxiableUUID()": "52d1902d",
			"rejectAttestation(bytes32,string)": "afc5794c",
			"renounceRole(bytes32,address)": "36568abe",
			"revokeRole(bytes32,address)": "d547741f",
			"supportsInterface(bytes4)": "01ffc9a7",
			"unpause()": "3f4ba83a",
			"upgradeToAndCall(address,bytes)": "4f1ef286",
			"userAttestations(address,uint256)": "1cf2bbc9",
			"verifyAttestation(bytes32,string)": "ebfde32b"
		}
	},
	"abi": [
		{
			"inputs": [],
			"stateMutability": "nonpayable",
			"type": "constructor"
		},
		{
			"inputs": [],
			"name": "AccessControlBadConfirmation",
			"type": "error"
		},
		{
			"inputs": [
				{
					"internalType": "address",
					"name": "account",
					"type": "address"
				},
				{
					"internalType": "bytes32",
					"name": "neededRole",
					"type": "bytes32"
				}
			],
			"name": "AccessControlUnauthorizedAccount",
			"type": "error"
		},
		{
			"inputs": [
				{
					"internalType": "address",
					"name": "target",
					"type": "address"
				}
			],
			"name": "AddressEmptyCode",
			"type": "error"
		},
		{
			"inputs": [
				{
					"internalType": "address",
					"name": "implementation",
					"type": "address"
				}
			],
			"name": "ERC1967InvalidImplementation",
			"type": "error"
		},
		{
			"inputs": [],
			"name": "ERC1967NonPayable",
			"type": "error"
		},
		{
			"inputs": [],
			"name": "FailedCall",
			"type": "error"
		},
		{
			"inputs": [],
			"name": "InvalidInitialization",
			"type": "error"
		},
		{
			"inputs": [],
			"name": "NotInitializing",
			"type": "error"
		},
		{
			"inputs": [],
			"name": "UUPSUnauthorizedCallContext",
			"type": "error"
		},
		{
			"inputs": [
				{
					"internalType": "bytes32",
					"name": "slot",
					"type": "bytes32"
				}
			],
			"name": "UUPSUnsupportedProxiableUUID",
			"type": "error"
		},
		{
			"anonymous": false,
			"inputs": [
				{
					"indexed": true,
					"internalType": "bytes32",
					"name": "attestationId",
					"type": "bytes32"
				},
				{
					"indexed": true,
					"internalType": "string",
					"name": "orderId",
					"type": "string"
				},
				{
					"indexed": true,
					"internalType": "address",
					"name": "user",
					"type": "address"
				},
				{
					"indexed": false,
					"internalType": "address",
					"name": "facility",
					"type": "address"
				},
				{
					"indexed": false,
					"internalType": "string",
					"name": "wasteType",
					"type": "string"
				},
				{
					"indexed": false,
					"internalType": "uint256",
					"name": "weightKg",
					"type": "uint256"
				}
			],
			"name": "AttestationCreated",
			"type": "event"
		},
		{
			"anonymous": false,
			"inputs": [
				{
					"indexed": true,
					"internalType": "bytes32",
					"name": "attestationId",
					"type": "bytes32"
				},
				{
					"indexed": true,
					"internalType": "string",
					"name": "orderId",
					"type": "string"
				},
				{
					"indexed": true,
					"internalType": "bytes32",
					"name": "txHash",
					"type": "bytes32"
				}
			],
			"name": "AttestationProcessed",
			"type": "event"
		},
		{
			"anonymous": false,
			"inputs": [
				{
					"indexed": true,
					"internalType": "bytes32",
					"name": "attestationId",
					"type": "bytes32"
				},
				{
					"indexed": true,
					"internalType": "string",
					"name": "orderId",
					"type": "string"
				},
				{
					"indexed": false,
					"internalType": "string",
					"name": "reason",
					"type": "string"
				}
			],
			"name": "AttestationRejected",
			"type": "event"
		},
		{
			"anonymous": false,
			"inputs": [
				{
					"indexed": true,
					"internalType": "bytes32",
					"name": "attestationId",
					"type": "bytes32"
				},
				{
					"indexed": true,
					"internalType": "string",
					"name": "orderId",
					"type": "string"
				},
				{
					"indexed": true,
					"internalType": "address",
					"name": "facility",
					"type": "address"
				},
				{
					"indexed": false,
					"internalType": "string",
					"name": "evidenceCID",
					"type": "string"
				}
			],
			"name": "AttestationVerified",
			"type": "event"
		},
		{
			"anonymous": false,
			"inputs": [
				{
					"indexed": false,
					"internalType": "uint64",
					"name": "version",
					"type": "uint64"
				}
			],
			"name": "Initialized",
			"type": "event"
		},
		{
			"anonymous": false,
			"inputs": [
				{
					"indexed": false,
					"internalType": "address",
					"name": "account",
					"type": "address"
				}
			],
			"name": "Paused",
			"type": "event"
		},
		{
			"anonymous": false,
			"inputs": [
				{
					"indexed": true,
					"internalType": "bytes32",
					"name": "role",
					"type": "bytes32"
				},
				{
					"indexed": true,
					"internalType": "bytes32",
					"name": "previousAdminRole",
					"type": "bytes32"
				},
				{
					"indexed": true,
					"internalType": "bytes32",
					"name": "newAdminRole",
					"type": "bytes32"
				}
			],
			"name": "RoleAdminChanged",
			"type": "event"
		},
		{
			"anonymous": false,
			"inputs": [
				{
					"indexed": true,
					"internalType": "bytes32",
					"name": "role",
					"type": "bytes32"
				},
				{
					"indexed": true,
					"internalType": "address",
					"name": "account",
					"type": "address"
				},
				{
					"indexed": true,
					"internalType": "address",
					"name": "sender",
					"type": "address"
				}
			],
			"name": "RoleGranted",
			"type": "event"
		},
		{
			"anonymous": false,
			"inputs": [
				{
					"indexed": true,
					"internalType": "bytes32",
					"name": "role",
					"type": "bytes32"
				},
				{
					"indexed": true,
					"internalType": "address",
					"name": "account",
					"type": "address"
				},
				{
					"indexed": true,
					"internalType": "address",
					"name": "sender",
					"type": "address"
				}
			],
			"name": "RoleRevoked",
			"type": "event"
		},
		{
			"anonymous": false,
			"inputs": [
				{
					"indexed": false,
					"internalType": "address",
					"name": "account",
					"type": "address"
				}
			],
			"name": "Unpaused",
			"type": "event"
		},
		{
			"anonymous": false,
			"inputs": [
				{
					"indexed": true,
					"internalType": "address",
					"name": "implementation",
					"type": "address"
				}
			],
			"name": "Upgraded",
			"type": "event"
		},
		{
			"inputs": [],
			"name": "ADMIN_ROLE",
			"outputs": [
				{
					"internalType": "bytes32",
					"name": "",
					"type": "bytes32"
				}
			],
			"stateMutability": "view",
			"type": "function"
		},
		{
			"inputs": [],
			"name": "DEFAULT_ADMIN_ROLE",
			"outputs": [
				{
					"internalType": "bytes32",
					"name": "",
					"type": "bytes32"
				}
			],
			"stateMutability": "view",
			"type": "function"
		},
		{
			"inputs": [],
			"name": "FACILITY_ROLE",
			"outputs": [
				{
					"internalType": "bytes32",
					"name": "",
					"type": "bytes32"
				}
			],
			"stateMutability": "view",
			"type": "function"
		},
		{
			"inputs": [],
			"name": "RELAYER_ROLE",
			"outputs": [
				{
					"internalType": "bytes32",
					"name": "",
					"type": "bytes32"
				}
			],
			"stateMutability": "view",
			"type": "function"
		},
		{
			"inputs": [],
			"name": "UPGRADE_INTERFACE_VERSION",
			"outputs": [
				{
					"internalType": "string",
					"name": "",
					"type": "string"
				}
			],
			"stateMutability": "view",
			"type": "function"
		},
		{
			"inputs": [
				{
					"internalType": "bytes32",
					"name": "",
					"type": "bytes32"
				}
			],
			"name": "attestations",
			"outputs": [
				{
					"internalType": "string",
					"name": "orderId",
					"type": "string"
				},
				{
					"internalType": "address",
					"name": "user",
					"type": "address"
				},
				{
					"internalType": "address",
					"name": "facility",
					"type": "address"
				},
				{
					"internalType": "string",
					"name": "wasteType",
					"type": "string"
				},
				{
					"internalType": "uint256",
					"name": "weightKg",
					"type": "uint256"
				},
				{
					"internalType": "string",
					"name": "imageCID",
					"type": "string"
				},
				{
					"internalType": "string",
					"name": "evidenceCID",
					"type": "string"
				},
				{
					"internalType": "enum AttestationRegistry.AttestationStatus",
					"name": "status",
					"type": "uint8"
				},
				{
					"internalType": "uint256",
					"name": "createdAt",
					"type": "uint256"
				},
				{
					"internalType": "uint256",
					"name": "verifiedAt",
					"type": "uint256"
				},
				{
					"internalType": "uint256",
					"name": "processedAt",
					"type": "uint256"
				},
				{
					"internalType": "string",
					"name": "rejectReason",
					"type": "string"
				},
				{
					"internalType": "bytes32",
					"name": "txHash",
					"type": "bytes32"
				}
			],
			"stateMutability": "view",
			"type": "function"
		},
		{
			"inputs": [
				{
					"internalType": "string",
					"name": "orderId",
					"type": "string"
				},
				{
					"internalType": "address",
					"name": "user",
					"type": "address"
				},
				{
					"internalType": "address",
					"name": "facility",
					"type": "address"
				},
				{
					"internalType": "string",
					"name": "wasteType",
					"type": "string"
				},
				{
					"internalType": "uint256",
					"name": "weightKg",
					"type": "uint256"
				},
				{
					"internalType": "string",
					"name": "imageCID",
					"type": "string"
				}
			],
			"name": "createAttestation",
			"outputs": [
				{
					"internalType": "bytes32",
					"name": "",
					"type": "bytes32"
				}
			],
			"stateMutability": "nonpayable",
			"type": "function"
		},
		{
			"inputs": [
				{
					"internalType": "address",
					"name": "",
					"type": "address"
				},
				{
					"internalType": "uint256",
					"name": "",
					"type": "uint256"
				}
			],
			"name": "facilityAttestations",
			"outputs": [
				{
					"internalType": "bytes32",
					"name": "",
					"type": "bytes32"
				}
			],
			"stateMutability": "view",
			"type": "function"
		},
		{
			"inputs": [
				{
					"internalType": "bytes32",
					"name": "attestationId",
					"type": "bytes32"
				}
			],
			"name": "getAttestation",
			"outputs": [
				{
					"components": [
						{
							"internalType": "string",
							"name": "orderId",
							"type": "string"
						},
						{
							"internalType": "address",
							"name": "user",
							"type": "address"
						},
						{
							"internalType": "address",
							"name": "facility",
							"type": "address"
						},
						{
							"internalType": "string",
							"name": "wasteType",
							"type": "string"
						},
						{
							"internalType": "uint256",
							"name": "weightKg",
							"type": "uint256"
						},
						{
							"internalType": "string",
							"name": "imageCID",
							"type": "string"
						},
						{
							"internalType": "string",
							"name": "evidenceCID",
							"type": "string"
						},
						{
							"internalType": "enum AttestationRegistry.AttestationStatus",
							"name": "status",
							"type": "uint8"
						},
						{
							"internalType": "uint256",
							"name": "createdAt",
							"type": "uint256"
						},
						{
							"internalType": "uint256",
							"name": "verifiedAt",
							"type": "uint256"
						},
						{
							"internalType": "uint256",
							"name": "processedAt",
							"type": "uint256"
						},
						{
							"internalType": "string",
							"name": "rejectReason",
							"type": "string"
						},
						{
							"internalType": "bytes32",
							"name": "txHash",
							"type": "bytes32"
						}
					],
					"internalType": "struct AttestationRegistry.Attestation",
					"name": "",
					"type": "tuple"
				}
			],
			"stateMutability": "view",
			"type": "function"
		},
		{
			"inputs": [
				{
					"internalType": "string",
					"name": "orderId",
					"type": "string"
				}
			],
			"name": "getAttestationByOrder",
			"outputs": [
				{
					"components": [
						{
							"internalType": "string",
							"name": "orderId",
							"type": "string"
						},
						{
							"internalType": "address",
							"name": "user",
							"type": "address"
						},
						{
							"internalType": "address",
							"name": "facility",
							"type": "address"
						},
						{
							"internalType": "string",
							"name": "wasteType",
							"type": "string"
						},
						{
							"internalType": "uint256",
							"name": "weightKg",
							"type": "uint256"
						},
						{
							"internalType": "string",
							"name": "imageCID",
							"type": "string"
						},
						{
							"internalType": "string",
							"name": "evidenceCID",
							"type": "string"
						},
						{
							"internalType": "enum AttestationRegistry.AttestationStatus",
							"name": "status",
							"type": "uint8"
						},
						{
							"internalType": "uint256",
							"name": "createdAt",
							"type": "uint256"
						},
						{
							"internalType": "uint256",
							"name": "verifiedAt",
							"type": "uint256"
						},
						{
							"internalType": "uint256",
							"name": "processedAt",
							"type": "uint256"
						},
						{
							"internalType": "string",
							"name": "rejectReason",
							"type": "string"
						},
						{
							"internalType": "bytes32",
							"name": "txHash",
							"type": "bytes32"
						}
					],
					"internalType": "struct AttestationRegistry.Attestation",
					"name": "",
					"type": "tuple"
				}
			],
			"stateMutability": "view",
			"type": "function"
		},
		{
			"inputs": [
				{
					"internalType": "address",
					"name": "facility",
					"type": "address"
				}
			],
			"name": "getFacilityAttestations",
			"outputs": [
				{
					"internalType": "bytes32[]",
					"name": "",
					"type": "bytes32[]"
				}
			],
			"stateMutability": "view",
			"type": "function"
		},
		{
			"inputs": [
				{
					"internalType": "bytes32",
					"name": "role",
					"type": "bytes32"
				}
			],
			"name": "getRoleAdmin",
			"outputs": [
				{
					"internalType": "bytes32",
					"name": "",
					"type": "bytes32"
				}
			],
			"stateMutability": "view",
			"type": "function"
		},
		{
			"inputs": [
				{
					"internalType": "address",
					"name": "user",
					"type": "address"
				}
			],
			"name": "getUserAttestations",
			"outputs": [
				{
					"internalType": "bytes32[]",
					"name": "",
					"type": "bytes32[]"
				}
			],
			"stateMutability": "view",
			"type": "function"
		},
		{
			"inputs": [
				{
					"internalType": "bytes32",
					"name": "role",
					"type": "bytes32"
				},
				{
					"internalType": "address",
					"name": "account",
					"type": "address"
				}
			],
			"name": "grantRole",
			"outputs": [],
			"stateMutability": "nonpayable",
			"type": "function"
		},
		{
			"inputs": [
				{
					"internalType": "bytes32",
					"name": "role",
					"type": "bytes32"
				},
				{
					"internalType": "address",
					"name": "account",
					"type": "address"
				}
			],
			"name": "hasRole",
			"outputs": [
				{
					"internalType": "bool",
					"name": "",
					"type": "bool"
				}
			],
			"stateMutability": "view",
			"type": "function"
		},
		{
			"inputs": [
				{
					"internalType": "address",
					"name": "admin",
					"type": "address"
				}
			],
			"name": "initialize",
			"outputs": [],
			"stateMutability": "nonpayable",
			"type": "function"
		},
		{
			"inputs": [
				{
					"internalType": "bytes32",
					"name": "attestationId",
					"type": "bytes32"
				},
				{
					"internalType": "bytes32",
					"name": "txHash",
					"type": "bytes32"
				}
			],
			"name": "markProcessed",
			"outputs": [],
			"stateMutability": "nonpayable",
			"type": "function"
		},
		{
			"inputs": [
				{
					"internalType": "string",
					"name": "",
					"type": "string"
				}
			],
			"name": "orderToAttestation",
			"outputs": [
				{
					"internalType": "bytes32",
					"name": "",
					"type": "bytes32"
				}
			],
			"stateMutability": "view",
			"type": "function"
		},
		{
			"inputs": [],
			"name": "pause",
			"outputs": [],
			"stateMutability": "nonpayable",
			"type": "function"
		},
		{
			"inputs": [],
			"name": "paused",
			"outputs": [
				{
					"internalType": "bool",
					"name": "",
					"type": "bool"
				}
			],
			"stateMutability": "view",
			"type": "function"
		},
		{
			"inputs": [],
			"name": "proxiableUUID",
			"outputs": [
				{
					"internalType": "bytes32",
					"name": "",
					"type": "bytes32"
				}
			],
			"stateMutability": "view",
			"type": "function"
		},
		{
			"inputs": [
				{
					"internalType": "bytes32",
					"name": "attestationId",
					"type": "bytes32"
				},
				{
					"internalType": "string",
					"name": "reason",
					"type": "string"
				}
			],
			"name": "rejectAttestation",
			"outputs": [],
			"stateMutability": "nonpayable",
			"type": "function"
		},
		{
			"inputs": [
				{
					"internalType": "bytes32",
					"name": "role",
					"type": "bytes32"
				},
				{
					"internalType": "address",
					"name": "callerConfirmation",
					"type": "address"
				}
			],
			"name": "renounceRole",
			"outputs": [],
			"stateMutability": "nonpayable",
			"type": "function"
		},
		{
			"inputs": [
				{
					"internalType": "bytes32",
					"name": "role",
					"type": "bytes32"
				},
				{
					"internalType": "address",
					"name": "account",
					"type": "address"
				}
			],
			"name": "revokeRole",
			"outputs": [],
			"stateMutability": "nonpayable",
			"type": "function"
		},
		{
			"inputs": [
				{
					"internalType": "bytes4",
					"name": "interfaceId",
					"type": "bytes4"
				}
			],
			"name": "supportsInterface",
			"outputs": [
				{
					"internalType": "bool",
					"name": "",
					"type": "bool"
				}
			],
			"stateMutability": "view",
			"type": "function"
		},
		{
			"inputs": [],
			"name": "unpause",
			"outputs": [],
			"stateMutability": "nonpayable",
			"type": "function"
		},
		{
			"inputs": [
				{
					"internalType": "address",
					"name": "newImplementation",
					"type": "address"
				},
				{
					"internalType": "bytes",
					"name": "data",
					"type": "bytes"
				}
			],
			"name": "upgradeToAndCall",
			"outputs": [],
			"stateMutability": "payable",
			"type": "function"
		},
		{
			"inputs": [
				{
					"internalType": "address",
					"name": "",
					"type": "address"
				},
				{
					"internalType": "uint256",
					"name": "",
					"type": "uint256"
				}
			],
			"name": "userAttestations",
			"outputs": [
				{
					"internalType": "bytes32",
					"name": "",
					"type": "bytes32"
				}
			],
			"stateMutability": "view",
			"type": "function"
		},
		{
			"inputs": [
				{
					"internalType": "bytes32",
					"name": "attestationId",
					"type": "bytes32"
				},
				{
					"internalType": "string",
					"name": "evidenceCID",
					"type": "string"
				}
			],
			"name": "verifyAttestation",
			"outputs": [],
			"stateMutability": "nonpayable",
			"type": "function"
		}
	]
}